{
  "contractName": "EstateLuxe",
  "abi": [
    {
      "inputs": [
        {
          "internalType": "string",
          "name": "name_",
          "type": "string"
        },
        {
          "internalType": "string",
          "name": "symbol_",
          "type": "string"
        }
      ],
      "stateMutability": "nonpayable",
      "type": "constructor"
    },
    {
      "anonymous": false,
      "inputs": [
        {
          "indexed": true,
          "internalType": "address",
          "name": "owner",
          "type": "address"
        },
        {
          "indexed": true,
          "internalType": "address",
          "name": "approved",
          "type": "address"
        },
        {
          "indexed": true,
          "internalType": "uint256",
          "name": "tokenId",
          "type": "uint256"
        }
      ],
      "name": "Approval",
      "type": "event"
    },
    {
      "anonymous": false,
      "inputs": [
        {
          "indexed": true,
          "internalType": "address",
          "name": "owner",
          "type": "address"
        },
        {
          "indexed": true,
          "internalType": "address",
          "name": "operator",
          "type": "address"
        },
        {
          "indexed": false,
          "internalType": "bool",
          "name": "approved",
          "type": "bool"
        }
      ],
      "name": "ApprovalForAll",
      "type": "event"
    },
    {
      "anonymous": false,
      "inputs": [
        {
          "indexed": false,
          "internalType": "uint256",
          "name": "tokenId",
          "type": "uint256"
        },
        {
          "indexed": false,
          "internalType": "uint256",
          "name": "price",
          "type": "uint256"
        },
        {
          "indexed": false,
          "internalType": "address payable",
          "name": "seller",
          "type": "address"
        },
        {
          "indexed": false,
          "internalType": "address payable",
          "name": "buyer",
          "type": "address"
        },
        {
          "indexed": false,
          "internalType": "uint256",
          "name": "date",
          "type": "uint256"
        }
      ],
      "name": "RealtyBought",
      "type": "event"
    },
    {
      "anonymous": false,
      "inputs": [
        {
          "indexed": false,
          "internalType": "uint256",
          "name": "tokenId",
          "type": "uint256"
        },
        {
          "indexed": false,
          "internalType": "string",
          "name": "location",
          "type": "string"
        },
        {
          "indexed": false,
          "internalType": "string",
          "name": "description",
          "type": "string"
        },
        {
          "indexed": false,
          "internalType": "uint256",
          "name": "price",
          "type": "uint256"
        },
        {
          "indexed": false,
          "internalType": "address",
          "name": "owner",
          "type": "address"
        },
        {
          "indexed": false,
          "internalType": "bool",
          "name": "isForSale",
          "type": "bool"
        },
        {
          "indexed": false,
          "internalType": "string",
          "name": "image",
          "type": "string"
        }
      ],
      "name": "RealtyListed",
      "type": "event"
    },
    {
      "anonymous": false,
      "inputs": [
        {
          "indexed": false,
          "internalType": "uint256",
          "name": "tokenId",
          "type": "uint256"
        },
        {
          "indexed": false,
          "internalType": "uint256",
          "name": "price",
          "type": "uint256"
        },
        {
          "indexed": false,
          "internalType": "bool",
          "name": "isForSale",
          "type": "bool"
        }
      ],
      "name": "RealtyResell",
      "type": "event"
    },
    {
      "anonymous": false,
      "inputs": [
        {
          "indexed": true,
          "internalType": "address",
          "name": "from",
          "type": "address"
        },
        {
          "indexed": true,
          "internalType": "address",
          "name": "to",
          "type": "address"
        },
        {
          "indexed": true,
          "internalType": "uint256",
          "name": "tokenId",
          "type": "uint256"
        }
      ],
      "name": "Transfer",
      "type": "event"
    },
    {
      "inputs": [
        {
          "internalType": "uint256",
          "name": "",
          "type": "uint256"
        }
      ],
      "name": "realties",
      "outputs": [
        {
          "internalType": "uint256",
          "name": "tokenId",
          "type": "uint256"
        },
        {
          "internalType": "string",
          "name": "location",
          "type": "string"
        },
        {
          "internalType": "string",
          "name": "description",
          "type": "string"
        },
        {
          "internalType": "uint256",
          "name": "price",
          "type": "uint256"
        },
        {
          "internalType": "address payable",
          "name": "owner",
          "type": "address"
        },
        {
          "internalType": "bool",
          "name": "isForSale",
          "type": "bool"
        },
        {
          "internalType": "string",
          "name": "image",
          "type": "string"
        }
      ],
      "stateMutability": "view",
      "type": "function",
      "constant": true
    },
    {
      "stateMutability": "payable",
      "type": "receive",
      "payable": true
    },
    {
      "inputs": [
        {
          "internalType": "string",
          "name": "_location",
          "type": "string"
        },
        {
          "internalType": "string",
          "name": "_description",
          "type": "string"
        },
        {
          "internalType": "uint256",
          "name": "_price",
          "type": "uint256"
        },
        {
          "internalType": "string",
          "name": "_image",
          "type": "string"
        },
        {
          "internalType": "string",
          "name": "_tokenCid",
          "type": "string"
        }
      ],
      "name": "createListing",
      "outputs": [],
      "stateMutability": "nonpayable",
      "type": "function"
    },
    {
      "inputs": [
        {
          "internalType": "uint256",
          "name": "tokenId",
          "type": "uint256"
        }
      ],
      "name": "buyRealty",
      "outputs": [],
      "stateMutability": "payable",
      "type": "function",
      "payable": true
    },
    {
      "inputs": [
        {
          "internalType": "uint256",
          "name": "_tokenId",
          "type": "uint256"
        },
        {
          "internalType": "uint256",
          "name": "_price",
          "type": "uint256"
        }
      ],
      "name": "resellRealty",
      "outputs": [],
      "stateMutability": "payable",
      "type": "function",
      "payable": true
    },
    {
      "inputs": [],
      "name": "getMyRealties",
      "outputs": [
        {
          "internalType": "uint256[]",
          "name": "",
          "type": "uint256[]"
        }
      ],
      "stateMutability": "view",
      "type": "function",
      "constant": true
    },
    {
      "inputs": [
        {
          "internalType": "uint256",
          "name": "_tokenId",
          "type": "uint256"
        }
      ],
      "name": "getRealtyTxns",
      "outputs": [
        {
          "components": [
            {
              "internalType": "uint256",
              "name": "tokenId",
              "type": "uint256"
            },
            {
              "internalType": "uint256",
              "name": "price",
              "type": "uint256"
            },
            {
              "internalType": "address payable",
              "name": "seller",
              "type": "address"
            },
            {
              "internalType": "address payable",
              "name": "buyer",
              "type": "address"
            },
            {
              "internalType": "uint256",
              "name": "date",
              "type": "uint256"
            }
          ],
          "internalType": "struct EstateLuxe.RealtyTxn[]",
          "name": "",
          "type": "tuple[]"
        }
      ],
      "stateMutability": "view",
      "type": "function",
      "constant": true
    },
    {
      "inputs": [
        {
          "internalType": "uint256",
          "name": "_tokenId",
          "type": "uint256"
        }
      ],
      "name": "findListing",
      "outputs": [
        {
          "internalType": "uint256",
          "name": "_price",
          "type": "uint256"
        },
        {
          "internalType": "address",
          "name": "_owner",
          "type": "address"
        },
        {
          "internalType": "bool",
          "name": "_isForSale",
          "type": "bool"
        }
      ],
      "stateMutability": "view",
      "type": "function",
      "constant": true
    },
    {
      "inputs": [],
      "name": "name",
      "outputs": [
        {
          "internalType": "string",
          "name": "",
          "type": "string"
        }
      ],
      "stateMutability": "view",
      "type": "function",
      "constant": true
    },
    {
      "inputs": [],
      "name": "symbol",
      "outputs": [
        {
          "internalType": "string",
          "name": "",
          "type": "string"
        }
      ],
      "stateMutability": "view",
      "type": "function",
      "constant": true
    },
    {
      "inputs": [
        {
          "internalType": "address",
          "name": "_owner",
          "type": "address"
        },
        {
          "internalType": "uint256",
          "name": "_tokenId",
          "type": "uint256"
        }
      ],
      "name": "mint",
      "outputs": [],
      "stateMutability": "nonpayable",
      "type": "function"
    },
    {
      "inputs": [
        {
          "internalType": "uint256",
          "name": "_tokenId",
          "type": "uint256"
        },
        {
          "internalType": "string",
          "name": "_tokenCid",
          "type": "string"
        }
      ],
      "name": "setTokenUri",
      "outputs": [],
      "stateMutability": "nonpayable",
      "type": "function"
    },
    {
      "inputs": [
        {
          "internalType": "uint256",
          "name": "_tokenId",
          "type": "uint256"
        }
      ],
      "name": "getTokenUri",
      "outputs": [
        {
          "internalType": "string",
          "name": "",
          "type": "string"
        }
      ],
      "stateMutability": "view",
      "type": "function",
      "constant": true
    },
    {
      "inputs": [
        {
          "internalType": "address",
          "name": "_owner",
          "type": "address"
        }
      ],
      "name": "balanceOf",
      "outputs": [
        {
          "internalType": "uint256",
          "name": "balance",
          "type": "uint256"
        }
      ],
      "stateMutability": "view",
      "type": "function",
      "constant": true
    },
    {
      "inputs": [
        {
          "internalType": "uint256",
          "name": "_tokenId",
          "type": "uint256"
        }
      ],
      "name": "ownerOf",
      "outputs": [
        {
          "internalType": "address",
          "name": "owner",
          "type": "address"
        }
      ],
      "stateMutability": "view",
      "type": "function",
      "constant": true
    },
    {
      "inputs": [
        {
          "internalType": "address",
          "name": "_to",
          "type": "address"
        },
        {
          "internalType": "uint256",
          "name": "_tokenId",
          "type": "uint256"
        }
      ],
      "name": "approve",
      "outputs": [],
      "stateMutability": "nonpayable",
      "type": "function"
    },
    {
      "inputs": [
        {
          "internalType": "uint256",
          "name": "_tokenId",
          "type": "uint256"
        }
      ],
      "name": "getApproved",
      "outputs": [
        {
          "internalType": "address",
          "name": "operator",
          "type": "address"
        }
      ],
      "stateMutability": "view",
      "type": "function",
      "constant": true
    },
    {
      "inputs": [
        {
          "internalType": "address",
          "name": "_operator",
          "type": "address"
        },
        {
          "internalType": "bool",
          "name": "_approved",
          "type": "bool"
        }
      ],
      "name": "setApprovalForAll",
      "outputs": [],
      "stateMutability": "nonpayable",
      "type": "function"
    },
    {
      "inputs": [
        {
          "internalType": "address",
          "name": "_owner",
          "type": "address"
        },
        {
          "internalType": "address",
          "name": "_operator",
          "type": "address"
        }
      ],
      "name": "isApprovedForAll",
      "outputs": [
        {
          "internalType": "bool",
          "name": "",
          "type": "bool"
        }
      ],
      "stateMutability": "view",
      "type": "function",
      "constant": true
    },
    {
      "inputs": [
        {
          "internalType": "address",
          "name": "_from",
          "type": "address"
        },
        {
          "internalType": "address",
          "name": "_to",
          "type": "address"
        },
        {
          "internalType": "uint256",
          "name": "_tokenId",
          "type": "uint256"
        }
      ],
      "name": "transferFrom",
      "outputs": [],
      "stateMutability": "nonpayable",
      "type": "function"
    },
    {
      "inputs": [
        {
          "internalType": "address",
          "name": "_from",
          "type": "address"
        },
        {
          "internalType": "address",
          "name": "_to",
          "type": "address"
        },
        {
          "internalType": "uint256",
          "name": "_tokenId",
          "type": "uint256"
        }
      ],
      "name": "safeTransferFrom",
      "outputs": [],
      "stateMutability": "nonpayable",
      "type": "function"
    }
  ],
  "bytecode": "0x60806040523480156200001157600080fd5b5060405162004589380380620045898339818101604052810190620000379190620002be565b81600090805190602001906200004f92919062000071565b5080600190805190602001906200006892919062000071565b505050620003a7565b8280546200007f9062000372565b90600052602060002090601f016020900481019282620000a35760008555620000ef565b82601f10620000be57805160ff1916838001178555620000ef565b82800160010185558215620000ef579182015b82811115620000ee578251825591602001919060010190620000d1565b5b509050620000fe919062000102565b5090565b5b808211156200011d57600081600090555060010162000103565b5090565b6000604051905090565b600080fd5b600080fd5b600080fd5b600080fd5b6000601f19601f8301169050919050565b7f4e487b7100000000000000000000000000000000000000000000000000000000600052604160045260246000fd5b6200018a826200013f565b810181811067ffffffffffffffff82111715620001ac57620001ab62000150565b5b80604052505050565b6000620001c162000121565b9050620001cf82826200017f565b919050565b600067ffffffffffffffff821115620001f257620001f162000150565b5b620001fd826200013f565b9050602081019050919050565b60005b838110156200022a5780820151818401526020810190506200020d565b838111156200023a576000848401525b50505050565b6000620002576200025184620001d4565b620001b5565b9050828152602081018484840111156200027657620002756200013a565b5b620002838482856200020a565b509392505050565b600082601f830112620002a357620002a262000135565b5b8151620002b584826020860162000240565b91505092915050565b60008060408385031215620002d857620002d76200012b565b5b600083015167ffffffffffffffff811115620002f957620002f862000130565b5b62000307858286016200028b565b925050602083015167ffffffffffffffff8111156200032b576200032a62000130565b5b62000339858286016200028b565b9150509250929050565b7f4e487b7100000000000000000000000000000000000000000000000000000000600052602260045260246000fd5b600060028204905060018216806200038b57607f821691505b602082108103620003a157620003a062000343565b5b50919050565b6141d280620003b76000396000f3fe6080604052600436106101235760003560e01c80636352211e116100a0578063a22cb46511610064578063a22cb465146103e8578063a3dcce4114610411578063e985e9c51461043a578063eaca6c5314610477578063eea74443146104ba5761012a565b80636352211e146102c757806370a08231146103045780638ad913451461034157806395d89b411461037e5780639aefcb0d146103a95761012a565b80632ca584e8116100e75780632ca584e81461020557806340c10f191461023057806342842e0e14610259578063475c477d1461028257806357f7789e1461029e5761012a565b806306fdde031461012f578063081812fc1461015a578063095ea7b314610197578063174e4fd1146101c057806323b872dd146101dc5761012a565b3661012a57005b600080fd5b34801561013b57600080fd5b506101446104f7565b6040516101519190612d60565b60405180910390f35b34801561016657600080fd5b50610181600480360381019061017c9190612dcc565b610589565b60405161018e9190612e3a565b60405180910390f35b3480156101a357600080fd5b506101be60048036038101906101b99190612e81565b610667565b005b6101da60048036038101906101d59190612ec1565b61085f565b005b3480156101e857600080fd5b5061020360048036038101906101fe9190612f01565b610ca9565b005b34801561021157600080fd5b5061021a6110ee565b6040516102279190613012565b60405180910390f35b34801561023c57600080fd5b5061025760048036038101906102529190612e81565b6112d6565b005b34801561026557600080fd5b50610280600480360381019061027b9190612f01565b611481565b005b61029c60048036038101906102979190612dcc565b6115b9565b005b3480156102aa57600080fd5b506102c560048036038101906102c09190613169565b611a4f565b005b3480156102d357600080fd5b506102ee60048036038101906102e99190612dcc565b611b7f565b6040516102fb9190612e3a565b60405180910390f35b34801561031057600080fd5b5061032b600480360381019061032691906131c5565b611c5d565b6040516103389190613201565b60405180910390f35b34801561034d57600080fd5b5061036860048036038101906103639190612dcc565b611ca6565b6040516103759190612d60565b60405180910390f35b34801561038a57600080fd5b50610393611ded565b6040516103a09190612d60565b60405180910390f35b3480156103b557600080fd5b506103d060048036038101906103cb9190612dcc565b611e7f565b6040516103df93929190613237565b60405180910390f35b3480156103f457600080fd5b5061040f600480360381019061040a919061329a565b6120fd565b005b34801561041d57600080fd5b50610438600480360381019061043391906132da565b6122d7565b005b34801561044657600080fd5b50610461600480360381019061045c91906133c5565b6126be565b60405161046e9190613405565b60405180910390f35b34801561048357600080fd5b5061049e60048036038101906104999190612dcc565b61282f565b6040516104b19796959493929190613441565b60405180910390f35b3480156104c657600080fd5b506104e160048036038101906104dc9190612dcc565b612a46565b6040516104ee91906135eb565b60405180910390f35b6060600080546105069061363c565b80601f01602080910402602001604051908101604052809291908181526020018280546105329061363c565b801561057f5780601f106105545761010080835404028352916020019161057f565b820191906000526020600020905b81548152906001019060200180831161056257829003601f168201915b5050505050905090565b60008073ffffffffffffffffffffffffffffffffffffffff166004600084815260200190815260200160002060009054906101000a900473ffffffffffffffffffffffffffffffffffffffff1673ffffffffffffffffffffffffffffffffffffffff160361062c576040517f08c379a0000000000000000000000000000000000000000000000000000000008152600401610623906136b9565b60405180910390fd5b6008600083815260200190815260200160002060009054906101000a900473ffffffffffffffffffffffffffffffffffffffff169050919050565b3373ffffffffffffffffffffffffffffffffffffffff166004600083815260200190815260200160002060009054906101000a900473ffffffffffffffffffffffffffffffffffffffff1673ffffffffffffffffffffffffffffffffffffffff1614610708576040517f08c379a00000000000000000000000000000000000000000000000000000000081526004016106ff90613725565b60405180910390fd5b816008600083815260200190815260200160002060006101000a81548173ffffffffffffffffffffffffffffffffffffffff021916908373ffffffffffffffffffffffffffffffffffffffff1602179055506001600760003373ffffffffffffffffffffffffffffffffffffffff1673ffffffffffffffffffffffffffffffffffffffff16815260200190815260200160002060008473ffffffffffffffffffffffffffffffffffffffff1673ffffffffffffffffffffffffffffffffffffffff168152602001908152602001600020600083815260200190815260200160002060006101000a81548160ff021916908315150217905550808273ffffffffffffffffffffffffffffffffffffffff163373ffffffffffffffffffffffffffffffffffffffff167f8c5be1e5ebec7d5bd14f71427d1e84f3dd0314c0f7b2291e5b200ac8c7c3b92560405160405180910390a45050565b600073ffffffffffffffffffffffffffffffffffffffff166004600084815260200190815260200160002060009054906101000a900473ffffffffffffffffffffffffffffffffffffffff1673ffffffffffffffffffffffffffffffffffffffff1603610901576040517f08c379a00000000000000000000000000000000000000000000000000000000081526004016108f8906136b9565b60405180910390fd5b3373ffffffffffffffffffffffffffffffffffffffff166004600084815260200190815260200160002060009054906101000a900473ffffffffffffffffffffffffffffffffffffffff1673ffffffffffffffffffffffffffffffffffffffff16146109a2576040517f08c379a000000000000000000000000000000000000000000000000000000000815260040161099990613725565b60405180910390fd5b600081116109e5576040517f08c379a00000000000000000000000000000000000000000000000000000000081526004016109dc90613791565b60405180910390fd5b6000600960008481526020019081526020016000206040518060e001604052908160008201548152602001600182018054610a1f9061363c565b80601f0160208091040260200160405190810160405280929190818152602001828054610a4b9061363c565b8015610a985780601f10610a6d57610100808354040283529160200191610a98565b820191906000526020600020905b815481529060010190602001808311610a7b57829003601f168201915b50505050508152602001600282018054610ab19061363c565b80601f0160208091040260200160405190810160405280929190818152602001828054610add9061363c565b8015610b2a5780601f10610aff57610100808354040283529160200191610b2a565b820191906000526020600020905b815481529060010190602001808311610b0d57829003601f168201915b50505050508152602001600382015481526020016004820160009054906101000a900473ffffffffffffffffffffffffffffffffffffffff1673ffffffffffffffffffffffffffffffffffffffff1673ffffffffffffffffffffffffffffffffffffffff1681526020016004820160149054906101000a900460ff16151515158152602001600582018054610bbe9061363c565b80601f0160208091040260200160405190810160405280929190818152602001828054610bea9061363c565b8015610c375780601f10610c0c57610100808354040283529160200191610c37565b820191906000526020600020905b815481529060010190602001808311610c1a57829003601f168201915b50505050508152505090508181606001818152505060018160a00190151590811515815250507ffbc096da65d667d456e87182b24ab28c469855240d3fd53d9685b2a6954542c0816000015182606001518360a00151604051610c9c939291906137b1565b60405180910390a1505050565b600073ffffffffffffffffffffffffffffffffffffffff166004600083815260200190815260200160002060009054906101000a900473ffffffffffffffffffffffffffffffffffffffff1673ffffffffffffffffffffffffffffffffffffffff1603610d4b576040517f08c379a0000000000000000000000000000000000000000000000000000000008152600401610d42906136b9565b60405180910390fd5b600073ffffffffffffffffffffffffffffffffffffffff168273ffffffffffffffffffffffffffffffffffffffff1603610dba576040517f08c379a0000000000000000000000000000000000000000000000000000000008152600401610db190613834565b60405180910390fd5b6004600082815260200190815260200160002060009054906101000a900473ffffffffffffffffffffffffffffffffffffffff1673ffffffffffffffffffffffffffffffffffffffff163373ffffffffffffffffffffffffffffffffffffffff161480610ebe5750600760008473ffffffffffffffffffffffffffffffffffffffff1673ffffffffffffffffffffffffffffffffffffffff16815260200190815260200160002060003373ffffffffffffffffffffffffffffffffffffffff1673ffffffffffffffffffffffffffffffffffffffff168152602001908152602001600020600082815260200190815260200160002060009054906101000a900460ff165b80610f4f5750600660008473ffffffffffffffffffffffffffffffffffffffff1673ffffffffffffffffffffffffffffffffffffffff16815260200190815260200160002060003373ffffffffffffffffffffffffffffffffffffffff1673ffffffffffffffffffffffffffffffffffffffff16815260200190815260200160002060009054906101000a900460ff165b610f8e576040517f08c379a0000000000000000000000000000000000000000000000000000000008152600401610f85906138a0565b60405180910390fd5b816004600083815260200190815260200160002060006101000a81548173ffffffffffffffffffffffffffffffffffffffff021916908373ffffffffffffffffffffffffffffffffffffffff1602179055506001600560008573ffffffffffffffffffffffffffffffffffffffff1673ffffffffffffffffffffffffffffffffffffffff168152602001908152602001600020600082825461103091906138ef565b925050819055506001600560008473ffffffffffffffffffffffffffffffffffffffff1673ffffffffffffffffffffffffffffffffffffffff16815260200190815260200160002060008282546110879190613923565b92505081905550808273ffffffffffffffffffffffffffffffffffffffff168473ffffffffffffffffffffffffffffffffffffffff167fddf252ad1be2c89b69c2b068fc378daa952ba7f163c4a11628f55a4df523b3ef60405160405180910390a4505050565b60606000600560003373ffffffffffffffffffffffffffffffffffffffff1673ffffffffffffffffffffffffffffffffffffffff1681526020019081526020016000205490506000810361118e57600067ffffffffffffffff8111156111575761115661303e565b5b6040519080825280602002602001820160405280156111855781602001602082028036833780820191505090505b509150506112d3565b60008167ffffffffffffffff8111156111aa576111a961303e565b5b6040519080825280602002602001820160405280156111d85781602001602082028036833780820191505090505b5090506000805b6003805490508110156112cb573373ffffffffffffffffffffffffffffffffffffffff166003828154811061121757611216613979565b5b906000526020600020906006020160040160009054906101000a900473ffffffffffffffffffffffffffffffffffffffff1673ffffffffffffffffffffffffffffffffffffffff16036112b8576003818154811061127857611277613979565b5b90600052602060002090600602016000015483838151811061129d5761129c613979565b5b60200260200101818152505081806112b4906139a8565b9250505b80806112c3906139a8565b9150506111df565b508193505050505b90565b600073ffffffffffffffffffffffffffffffffffffffff166004600083815260200190815260200160002060009054906101000a900473ffffffffffffffffffffffffffffffffffffffff1673ffffffffffffffffffffffffffffffffffffffff1614611378576040517f08c379a000000000000000000000000000000000000000000000000000000000815260040161136f90613a3c565b60405180910390fd5b816004600083815260200190815260200160002060006101000a81548173ffffffffffffffffffffffffffffffffffffffff021916908373ffffffffffffffffffffffffffffffffffffffff1602179055506001600560008473ffffffffffffffffffffffffffffffffffffffff1673ffffffffffffffffffffffffffffffffffffffff168152602001908152602001600020600082825461141a9190613923565b92505081905550808273ffffffffffffffffffffffffffffffffffffffff16600073ffffffffffffffffffffffffffffffffffffffff167fddf252ad1be2c89b69c2b068fc378daa952ba7f163c4a11628f55a4df523b3ef60405160405180910390a45050565b61148c838383610ca9565b60008273ffffffffffffffffffffffffffffffffffffffff163b1480611575575063150b7a0260e01b7bffffffffffffffffffffffffffffffffffffffffffffffffffffffff19168273ffffffffffffffffffffffffffffffffffffffff1663150b7a023386856040518463ffffffff1660e01b815260040161151193929190613a93565b6020604051808303816000875af1158015611530573d6000803e3d6000fd5b505050506040513d601f19601f820116820180604052508101906115549190613b35565b7bffffffffffffffffffffffffffffffffffffffffffffffffffffffff1916145b6115b4576040517f08c379a00000000000000000000000000000000000000000000000000000000081526004016115ab90613bae565b60405180910390fd5b505050565b600073ffffffffffffffffffffffffffffffffffffffff166004600083815260200190815260200160002060009054906101000a900473ffffffffffffffffffffffffffffffffffffffff1673ffffffffffffffffffffffffffffffffffffffff160361165b576040517f08c379a000000000000000000000000000000000000000000000000000000000815260040161165290613c1a565b60405180910390fd5b600060039050600060019050813410156116aa576040517f08c379a00000000000000000000000000000000000000000000000000000000081526004016116a190613c86565b60405180910390fd5b806116ea576040517f08c379a00000000000000000000000000000000000000000000000000000000081526004016116e190613cf2565b60405180910390fd5b81341115611745573373ffffffffffffffffffffffffffffffffffffffff166108fc833461171891906138ef565b9081150290604051600060405180830381858888f19350505050158015611743573d6000803e3d6000fd5b505b6004600084815260200190815260200160002060009054906101000a900473ffffffffffffffffffffffffffffffffffffffff1673ffffffffffffffffffffffffffffffffffffffff166108fc349081150290604051600060405180830381858888f193505050501580156117be573d6000803e3d6000fd5b506117fd6004600085815260200190815260200160002060009054906101000a900473ffffffffffffffffffffffffffffffffffffffff163385610ca9565b336009600085815260200190815260200160002060040160006101000a81548173ffffffffffffffffffffffffffffffffffffffff021916908373ffffffffffffffffffffffffffffffffffffffff16021790555060006009600085815260200190815260200160002060040160146101000a81548160ff02191690831515021790555060006040518060a001604052808581526020018481526020016004600087815260200190815260200160002060009054906101000a900473ffffffffffffffffffffffffffffffffffffffff1673ffffffffffffffffffffffffffffffffffffffff1681526020013373ffffffffffffffffffffffffffffffffffffffff168152602001428152509050600a6000858152602001908152602001600020819080600181540180825580915050600190039060005260206000209060050201600090919091909150600082015181600001556020820151816001015560408201518160020160006101000a81548173ffffffffffffffffffffffffffffffffffffffff021916908373ffffffffffffffffffffffffffffffffffffffff16021790555060608201518160030160006101000a81548173ffffffffffffffffffffffffffffffffffffffff021916908373ffffffffffffffffffffffffffffffffffffffff1602179055506080820151816004015550507f574de17373d77e73e9ae0156fa7b29453037eb4a023085cd36a922a3c109295f81600001518260200151836040015184606001518560800151604051611a41959493929190613d12565b60405180910390a150505050565b600073ffffffffffffffffffffffffffffffffffffffff166004600084815260200190815260200160002060009054906101000a900473ffffffffffffffffffffffffffffffffffffffff1673ffffffffffffffffffffffffffffffffffffffff1603611af1576040517f08c379a0000000000000000000000000000000000000000000000000000000008152600401611ae8906136b9565b60405180910390fd5b60006040518060400160405280600781526020017f697066733a2f2f00000000000000000000000000000000000000000000000000815250905060008183604051602001611b40929190613da1565b604051602081830303815290604052905080600b60008681526020019081526020016000209080519060200190611b78929190612c24565b5050505050565b60008073ffffffffffffffffffffffffffffffffffffffff166004600084815260200190815260200160002060009054906101000a900473ffffffffffffffffffffffffffffffffffffffff1673ffffffffffffffffffffffffffffffffffffffff1603611c22576040517f08c379a0000000000000000000000000000000000000000000000000000000008152600401611c19906136b9565b60405180910390fd5b6004600083815260200190815260200160002060009054906101000a900473ffffffffffffffffffffffffffffffffffffffff169050919050565b6000600560008373ffffffffffffffffffffffffffffffffffffffff1673ffffffffffffffffffffffffffffffffffffffff168152602001908152602001600020549050919050565b6060600073ffffffffffffffffffffffffffffffffffffffff166004600084815260200190815260200160002060009054906101000a900473ffffffffffffffffffffffffffffffffffffffff1673ffffffffffffffffffffffffffffffffffffffff1603611d4a576040517f08c379a0000000000000000000000000000000000000000000000000000000008152600401611d41906136b9565b60405180910390fd5b600b60008381526020019081526020016000208054611d689061363c565b80601f0160208091040260200160405190810160405280929190818152602001828054611d949061363c565b8015611de15780601f10611db657610100808354040283529160200191611de1565b820191906000526020600020905b815481529060010190602001808311611dc457829003601f168201915b50505050509050919050565b606060018054611dfc9061363c565b80601f0160208091040260200160405190810160405280929190818152602001828054611e289061363c565b8015611e755780601f10611e4a57610100808354040283529160200191611e75565b820191906000526020600020905b815481529060010190602001808311611e5857829003601f168201915b5050505050905090565b600080600080600960008681526020019081526020016000206040518060e001604052908160008201548152602001600182018054611ebd9061363c565b80601f0160208091040260200160405190810160405280929190818152602001828054611ee99061363c565b8015611f365780601f10611f0b57610100808354040283529160200191611f36565b820191906000526020600020905b815481529060010190602001808311611f1957829003601f168201915b50505050508152602001600282018054611f4f9061363c565b80601f0160208091040260200160405190810160405280929190818152602001828054611f7b9061363c565b8015611fc85780601f10611f9d57610100808354040283529160200191611fc8565b820191906000526020600020905b815481529060010190602001808311611fab57829003601f168201915b50505050508152602001600382015481526020016004820160009054906101000a900473ffffffffffffffffffffffffffffffffffffffff1673ffffffffffffffffffffffffffffffffffffffff1673ffffffffffffffffffffffffffffffffffffffff1681526020016004820160149054906101000a900460ff1615151515815260200160058201805461205c9061363c565b80601f01602080910402602001604051908101604052809291908181526020018280546120889061363c565b80156120d55780601f106120aa576101008083540402835291602001916120d5565b820191906000526020600020905b8154815290600101906020018083116120b857829003601f168201915b505050505081525050905080606001519350806080015192508060a001519150509193909250565b600073ffffffffffffffffffffffffffffffffffffffff168273ffffffffffffffffffffffffffffffffffffffff160361216c576040517f08c379a000000000000000000000000000000000000000000000000000000000815260040161216390613e11565b60405180910390fd5b3373ffffffffffffffffffffffffffffffffffffffff168273ffffffffffffffffffffffffffffffffffffffff16036121da576040517f08c379a00000000000000000000000000000000000000000000000000000000081526004016121d190613e7d565b60405180910390fd5b80600660003373ffffffffffffffffffffffffffffffffffffffff1673ffffffffffffffffffffffffffffffffffffffff16815260200190815260200160002060008473ffffffffffffffffffffffffffffffffffffffff1673ffffffffffffffffffffffffffffffffffffffff16815260200190815260200160002060006101000a81548160ff0219169083151502179055508173ffffffffffffffffffffffffffffffffffffffff163373ffffffffffffffffffffffffffffffffffffffff167f17307eab39ab6107e8899845ad3d59bd9653f200f220920489ca2b5937696c31836040516122cb9190613405565b60405180910390a35050565b600085511161231b576040517f08c379a000000000000000000000000000000000000000000000000000000000815260040161231290613ee9565b60405180910390fd5b600084511161235f576040517f08c379a000000000000000000000000000000000000000000000000000000000815260040161235690613f55565b60405180910390fd5b600083116123a2576040517f08c379a000000000000000000000000000000000000000000000000000000000815260040161239990613fc1565b60405180910390fd5b60008251116123e6576040517f08c379a00000000000000000000000000000000000000000000000000000000081526004016123dd9061402d565b60405180910390fd5b60006040518060e0016040528060025481526020018781526020018681526020018581526020013373ffffffffffffffffffffffffffffffffffffffff16815260200160011515815260200184815250905080600960006002548152602001908152602001600020600082015181600001556020820151816001019080519060200190612474929190612c24565b506040820151816002019080519060200190612491929190612c24565b506060820151816003015560808201518160040160006101000a81548173ffffffffffffffffffffffffffffffffffffffff021916908373ffffffffffffffffffffffffffffffffffffffff16021790555060a08201518160040160146101000a81548160ff02191690831515021790555060c082015181600501908051906020019061251f929190612c24565b509050506003819080600181540180825580915050600190039060005260206000209060060201600090919091909150600082015181600001556020820151816001019080519060200190612575929190612c24565b506040820151816002019080519060200190612592929190612c24565b506060820151816003015560808201518160040160006101000a81548173ffffffffffffffffffffffffffffffffffffffff021916908373ffffffffffffffffffffffffffffffffffffffff16021790555060a08201518160040160146101000a81548160ff02191690831515021790555060c0820151816005019080519060200190612620929190612c24565b5050506126313382600001516112d6565b61263f816000015183611a4f565b60026000815480929190612652906139a8565b91905055507fc6031684618fe9e70fe454a982b61ce91abed316bc6ff57faa7a40b6f9103798816000015182602001518360400151846060015185608001518660a001518760c001516040516126ae97969594939291906140ac565b60405180910390a1505050505050565b60008073ffffffffffffffffffffffffffffffffffffffff168373ffffffffffffffffffffffffffffffffffffffff160361272e576040517f08c379a00000000000000000000000000000000000000000000000000000000081526004016127259061417c565b60405180910390fd5b600073ffffffffffffffffffffffffffffffffffffffff168273ffffffffffffffffffffffffffffffffffffffff160361279d576040517f08c379a000000000000000000000000000000000000000000000000000000000815260040161279490613e11565b60405180910390fd5b600660008473ffffffffffffffffffffffffffffffffffffffff1673ffffffffffffffffffffffffffffffffffffffff16815260200190815260200160002060008373ffffffffffffffffffffffffffffffffffffffff1673ffffffffffffffffffffffffffffffffffffffff16815260200190815260200160002060009054906101000a900460ff16905092915050565b6003818154811061283f57600080fd5b90600052602060002090600602016000915090508060000154908060010180546128689061363c565b80601f01602080910402602001604051908101604052809291908181526020018280546128949061363c565b80156128e15780601f106128b6576101008083540402835291602001916128e1565b820191906000526020600020905b8154815290600101906020018083116128c457829003601f168201915b5050505050908060020180546128f69061363c565b80601f01602080910402602001604051908101604052809291908181526020018280546129229061363c565b801561296f5780601f106129445761010080835404028352916020019161296f565b820191906000526020600020905b81548152906001019060200180831161295257829003601f168201915b5050505050908060030154908060040160009054906101000a900473ffffffffffffffffffffffffffffffffffffffff16908060040160149054906101000a900460ff16908060050180546129c39061363c565b80601f01602080910402602001604051908101604052809291908181526020018280546129ef9061363c565b8015612a3c5780601f10612a1157610100808354040283529160200191612a3c565b820191906000526020600020905b815481529060010190602001808311612a1f57829003601f168201915b5050505050905087565b6060600073ffffffffffffffffffffffffffffffffffffffff166004600084815260200190815260200160002060009054906101000a900473ffffffffffffffffffffffffffffffffffffffff1673ffffffffffffffffffffffffffffffffffffffff1603612aea576040517f08c379a0000000000000000000000000000000000000000000000000000000008152600401612ae1906136b9565b60405180910390fd5b600a6000838152602001908152602001600020805480602002602001604051908101604052809291908181526020016000905b82821015612c1957838290600052602060002090600502016040518060a001604052908160008201548152602001600182015481526020016002820160009054906101000a900473ffffffffffffffffffffffffffffffffffffffff1673ffffffffffffffffffffffffffffffffffffffff1673ffffffffffffffffffffffffffffffffffffffff1681526020016003820160009054906101000a900473ffffffffffffffffffffffffffffffffffffffff1673ffffffffffffffffffffffffffffffffffffffff1673ffffffffffffffffffffffffffffffffffffffff16815260200160048201548152505081526020019060010190612b1d565b505050509050919050565b828054612c309061363c565b90600052602060002090601f016020900481019282612c525760008555612c99565b82601f10612c6b57805160ff1916838001178555612c99565b82800160010185558215612c99579182015b82811115612c98578251825591602001919060010190612c7d565b5b509050612ca69190612caa565b5090565b5b80821115612cc3576000816000905550600101612cab565b5090565b600081519050919050565b600082825260208201905092915050565b60005b83811015612d01578082015181840152602081019050612ce6565b83811115612d10576000848401525b50505050565b6000601f19601f8301169050919050565b6000612d3282612cc7565b612d3c8185612cd2565b9350612d4c818560208601612ce3565b612d5581612d16565b840191505092915050565b60006020820190508181036000830152612d7a8184612d27565b905092915050565b6000604051905090565b600080fd5b600080fd5b6000819050919050565b612da981612d96565b8114612db457600080fd5b50565b600081359050612dc681612da0565b92915050565b600060208284031215612de257612de1612d8c565b5b6000612df084828501612db7565b91505092915050565b600073ffffffffffffffffffffffffffffffffffffffff82169050919050565b6000612e2482612df9565b9050919050565b612e3481612e19565b82525050565b6000602082019050612e4f6000830184612e2b565b92915050565b612e5e81612e19565b8114612e6957600080fd5b50565b600081359050612e7b81612e55565b92915050565b60008060408385031215612e9857612e97612d8c565b5b6000612ea685828601612e6c565b9250506020612eb785828601612db7565b9150509250929050565b60008060408385031215612ed857612ed7612d8c565b5b6000612ee685828601612db7565b9250506020612ef785828601612db7565b9150509250929050565b600080600060608486031215612f1a57612f19612d8c565b5b6000612f2886828701612e6c565b9350506020612f3986828701612e6c565b9250506040612f4a86828701612db7565b9150509250925092565b600081519050919050565b600082825260208201905092915050565b6000819050602082019050919050565b612f8981612d96565b82525050565b6000612f9b8383612f80565b60208301905092915050565b6000602082019050919050565b6000612fbf82612f54565b612fc98185612f5f565b9350612fd483612f70565b8060005b83811015613005578151612fec8882612f8f565b9750612ff783612fa7565b925050600181019050612fd8565b5085935050505092915050565b6000602082019050818103600083015261302c8184612fb4565b905092915050565b600080fd5b600080fd5b7f4e487b7100000000000000000000000000000000000000000000000000000000600052604160045260246000fd5b61307682612d16565b810181811067ffffffffffffffff821117156130955761309461303e565b5b80604052505050565b60006130a8612d82565b90506130b4828261306d565b919050565b600067ffffffffffffffff8211156130d4576130d361303e565b5b6130dd82612d16565b9050602081019050919050565b82818337600083830152505050565b600061310c613107846130b9565b61309e565b90508281526020810184848401111561312857613127613039565b5b6131338482856130ea565b509392505050565b600082601f8301126131505761314f613034565b5b81356131608482602086016130f9565b91505092915050565b600080604083850312156131805761317f612d8c565b5b600061318e85828601612db7565b925050602083013567ffffffffffffffff8111156131af576131ae612d91565b5b6131bb8582860161313b565b9150509250929050565b6000602082840312156131db576131da612d8c565b5b60006131e984828501612e6c565b91505092915050565b6131fb81612d96565b82525050565b600060208201905061321660008301846131f2565b92915050565b60008115159050919050565b6132318161321c565b82525050565b600060608201905061324c60008301866131f2565b6132596020830185612e2b565b6132666040830184613228565b949350505050565b6132778161321c565b811461328257600080fd5b50565b6000813590506132948161326e565b92915050565b600080604083850312156132b1576132b0612d8c565b5b60006132bf85828601612e6c565b92505060206132d085828601613285565b9150509250929050565b600080600080600060a086880312156132f6576132f5612d8c565b5b600086013567ffffffffffffffff81111561331457613313612d91565b5b6133208882890161313b565b955050602086013567ffffffffffffffff81111561334157613340612d91565b5b61334d8882890161313b565b945050604061335e88828901612db7565b935050606086013567ffffffffffffffff81111561337f5761337e612d91565b5b61338b8882890161313b565b925050608086013567ffffffffffffffff8111156133ac576133ab612d91565b5b6133b88882890161313b565b9150509295509295909350565b600080604083850312156133dc576133db612d8c565b5b60006133ea85828601612e6c565b92505060206133fb85828601612e6c565b9150509250929050565b600060208201905061341a6000830184613228565b92915050565b600061342b82612df9565b9050919050565b61343b81613420565b82525050565b600060e082019050613456600083018a6131f2565b81810360208301526134688189612d27565b9050818103604083015261347c8188612d27565b905061348b60608301876131f2565b6134986080830186613432565b6134a560a0830185613228565b81810360c08301526134b78184612d27565b905098975050505050505050565b600081519050919050565b600082825260208201905092915050565b6000819050602082019050919050565b6134fa81613420565b82525050565b60a0820160008201516135166000850182612f80565b5060208201516135296020850182612f80565b50604082015161353c60408501826134f1565b50606082015161354f60608501826134f1565b5060808201516135626080850182612f80565b50505050565b60006135748383613500565b60a08301905092915050565b6000602082019050919050565b6000613598826134c5565b6135a281856134d0565b93506135ad836134e1565b8060005b838110156135de5781516135c58882613568565b97506135d083613580565b9250506001810190506135b1565b5085935050505092915050565b60006020820190508181036000830152613605818461358d565b905092915050565b7f4e487b7100000000000000000000000000000000000000000000000000000000600052602260045260246000fd5b6000600282049050600182168061365457607f821691505b6020821081036136675761366661360d565b5b50919050565b7f4e465420646f6573206e6f742065786973740000000000000000000000000000600082015250565b60006136a3601283612cd2565b91506136ae8261366d565b602082019050919050565b600060208201905081810360008301526136d281613696565b9050919050565b7f496e76616c696420746f6b656e206f776e657200000000000000000000000000600082015250565b600061370f601383612cd2565b915061371a826136d9565b602082019050919050565b6000602082019050818103600083015261373e81613702565b9050919050565b7f496e707574207265616c74792070726963650000000000000000000000000000600082015250565b600061377b601283612cd2565b915061378682613745565b602082019050919050565b600060208201905081810360008301526137aa8161376e565b9050919050565b60006060820190506137c660008301866131f2565b6137d360208301856131f2565b6137e06040830184613228565b949350505050565b7f496e76616c696420726563697069656e74000000000000000000000000000000600082015250565b600061381e601183612cd2565b9150613829826137e8565b602082019050919050565b6000602082019050818103600083015261384d81613811565b9050919050565b7f556e617574686f72697a6564207472616e73666572206f7065726174696f6e00600082015250565b600061388a601f83612cd2565b915061389582613854565b602082019050919050565b600060208201905081810360008301526138b98161387d565b9050919050565b7f4e487b7100000000000000000000000000000000000000000000000000000000600052601160045260246000fd5b60006138fa82612d96565b915061390583612d96565b925082821015613918576139176138c0565b5b828203905092915050565b600061392e82612d96565b915061393983612d96565b9250827fffffffffffffffffffffffffffffffffffffffffffffffffffffffffffffffff0382111561396e5761396d6138c0565b5b828201905092915050565b7f4e487b7100000000000000000000000000000000000000000000000000000000600052603260045260246000fd5b60006139b382612d96565b91507fffffffffffffffffffffffffffffffffffffffffffffffffffffffffffffffff82036139e5576139e46138c0565b5b600182019050919050565b7f4e465420616c7265616479206d696e7465640000000000000000000000000000600082015250565b6000613a26601283612cd2565b9150613a31826139f0565b602082019050919050565b60006020820190508181036000830152613a5581613a19565b9050919050565b600082825260208201905092915050565b50565b6000613a7d600083613a5c565b9150613a8882613a6d565b600082019050919050565b6000608082019050613aa86000830186612e2b565b613ab56020830185612e2b565b613ac260408301846131f2565b8181036060830152613ad381613a70565b9050949350505050565b60007fffffffff0000000000000000000000000000000000000000000000000000000082169050919050565b613b1281613add565b8114613b1d57600080fd5b50565b600081519050613b2f81613b09565b92915050565b600060208284031215613b4b57613b4a612d8c565b5b6000613b5984828501613b20565b91505092915050565b7f556e7361666520726563697069656e7400000000000000000000000000000000600082015250565b6000613b98601083612cd2565b9150613ba382613b62565b602082019050919050565b60006020820190508181036000830152613bc781613b8b565b9050919050565b7f546f6b656e20646f6573206e6f74206578697374000000000000000000000000600082015250565b6000613c04601483612cd2565b9150613c0f82613bce565b602082019050919050565b60006020820190508181036000830152613c3381613bf7565b9050919050565b7f496e73756666696369656e74204554482070726f766964656400000000000000600082015250565b6000613c70601983612cd2565b9150613c7b82613c3a565b602082019050919050565b60006020820190508181036000830152613c9f81613c63565b9050919050565b7f546f6b656e206973206e6f7420757020666f722073616c650000000000000000600082015250565b6000613cdc601883612cd2565b9150613ce782613ca6565b602082019050919050565b60006020820190508181036000830152613d0b81613ccf565b9050919050565b600060a082019050613d2760008301886131f2565b613d3460208301876131f2565b613d416040830186613432565b613d4e6060830185613432565b613d5b60808301846131f2565b9695505050505050565b600081905092915050565b6000613d7b82612cc7565b613d858185613d65565b9350613d95818560208601612ce3565b80840191505092915050565b6000613dad8285613d70565b9150613db98284613d70565b91508190509392505050565b7f496e76616c6964206f70657261746f7220616464726573730000000000000000600082015250565b6000613dfb601883612cd2565b9150613e0682613dc5565b602082019050919050565b60006020820190508181036000830152613e2a81613dee565b9050919050565b7f4f70657261746f722063616e6e6f7420626520746865206f776e657200000000600082015250565b6000613e67601c83612cd2565b9150613e7282613e31565b602082019050919050565b60006020820190508181036000830152613e9681613e5a565b9050919050565b7f4c6f636174696f6e206d757374206e6f7420626520656d707479000000000000600082015250565b6000613ed3601a83612cd2565b9150613ede82613e9d565b602082019050919050565b60006020820190508181036000830152613f0281613ec6565b9050919050565b7f4465736372697074696f6e206d757374206e6f7420626520656d707479000000600082015250565b6000613f3f601d83612cd2565b9150613f4a82613f09565b602082019050919050565b60006020820190508181036000830152613f6e81613f32565b9050919050565b7f5072696365206d757374206e6f7420626520656d707479000000000000000000600082015250565b6000613fab601783612cd2565b9150613fb682613f75565b602082019050919050565b60006020820190508181036000830152613fda81613f9e565b9050919050565b7f496d616765206d757374206e6f7420626520656d707479000000000000000000600082015250565b6000614017601783612cd2565b915061402282613fe1565b602082019050919050565b600060208201905081810360008301526140468161400a565b9050919050565b6000819050919050565b600061407261406d61406884612df9565b61404d565b612df9565b9050919050565b600061408482614057565b9050919050565b600061409682614079565b9050919050565b6140a68161408b565b82525050565b600060e0820190506140c1600083018a6131f2565b81810360208301526140d38189612d27565b905081810360408301526140e78188612d27565b90506140f660608301876131f2565b614103608083018661409d565b61411060a0830185613228565b81810360c08301526141228184612d27565b905098975050505050505050565b7f496e76616c6964206f776e657220616464726573730000000000000000000000600082015250565b6000614166601583612cd2565b915061417182614130565b602082019050919050565b6000602082019050818103600083015261419581614159565b905091905056fea2646970667358221220eb6b97bf034b077db97c2d0953fdfe8462865df9e647a0f61ccf15b6bc78a0e564736f6c634300080e0033",
  "immutableReferences": {},
  "source": "// SPDX-License-Identifier: MIT\npragma solidity ^0.8.14;\n\nimport './ERC721.sol';\nimport './IERC721Receiver.sol';\n\n\ncontract EstateLuxe is ERC721{\n\n  string private _name;\n  string private _symbol;\n\n  uint256 tokenIndex;\n\n  struct Realty {\n    uint256 tokenId;\n    string location;\n    string description;\n    uint256 price;\n    address payable owner;\n    bool isForSale;\n    string image;\n  }\n\n  struct RealtyTxn{\n    uint256 tokenId;\n    uint256 price;\n    address payable seller;\n    address payable buyer;\n    uint256 date;\n  }\n\n  event RealtyListed(\n    uint256 tokenId,\n    string location,\n    string description,\n    uint256 price,\n    address owner,\n    bool isForSale,\n    string image\n  );\n\n  event RealtyBought(\n    uint256 tokenId,\n    uint256 price,\n    address payable seller,\n    address payable buyer,\n    uint256 date\n  );\n\n  event RealtyResell(\n    uint256 tokenId,\n    uint256 price,\n    bool isForSale\n  );\n\n\n  Realty[] public realties;\n\n    // mapping that return the address of the owner of a specific NFT\n  mapping (uint256 => address) private _tokenOwner;\n\n  // mapping that returns the number of NFTs owned by an address\n  mapping (address => uint256) private _ownedTokensCount;\n\n  mapping(address => mapping(address => bool)) private _isApprovedForAll;\n\n  mapping(address => mapping(address => mapping(uint256 => bool))) private _isApprovedForSingle;\n\n  mapping(uint256 => address) private _tokenApproval;\n\n  mapping(uint256 => Realty) realtyProperty;\n\n  // returns a list of realty transactions that has occurred, by its token id \n  mapping(uint256 => RealtyTxn[]) realtyTxns;\n\n  mapping(uint256 => string) _tokenUri;\n\n  constructor(string memory name_, string memory symbol_){\n    _name = name_;\n    _symbol = symbol_;\n  }\n\n  // the receive function receives Ether from and EOA to the current contract balance\n  receive() external payable{}\n\n\n  function createListing(\n    string memory _location, \n    string memory _description, \n    uint256 _price,\n    string memory _image,\n    string memory _tokenCid\n    ) public {\n\n      require(bytes(_location).length > 0, \"Location must not be empty\");\n      require(bytes(_description).length > 0, \"Description must not be empty\");\n      require(_price > 0, \"Price must not be empty\");\n      require(bytes(_image).length > 0, \"Image must not be empty\");\n\n      Realty memory realty = Realty({\n        tokenId: tokenIndex,\n        location: _location,\n        description: _description,        \n        price: _price,\n        owner: payable(msg.sender),\n        isForSale: true,\n        image: _image\n      });\n      realtyProperty[tokenIndex]=realty;\n      realties.push(realty);\n      mint(msg.sender, realty.tokenId);\n      setTokenUri(realty.tokenId, _tokenCid);\n      tokenIndex ++;\n      \n      emit RealtyListed(realty.tokenId, realty.location, realty.description, realty.price, realty.owner, realty.isForSale, realty.image);\n  }\n\n\n  function buyRealty(uint256 tokenId)payable public{\n    require(_tokenOwner[tokenId] != address(0), \"Token does not exist\");\n    // (uint256 _price, address _owner, bool _isForSale)  = findListing(tokenId);\n    // address _owner;\n    uint256 _price = 3;\n    bool _isForSale = true;\n    // require(msg.sender != _owner, \"You cannot buy your own property\");\n    require(msg.value >= _price, \"Insufficient ETH provided\");\n    require(_isForSale, \"Token is not up for sale\");\n\n    if(msg.value > _price){\n      payable(msg.sender).transfer(msg.value - _price);\n    }\n    payable(_tokenOwner[tokenId]).transfer(msg.value);\n\n    transferFrom(_tokenOwner[tokenId], msg.sender, tokenId);\n    realtyProperty[tokenId].owner = payable(msg.sender);\n    realtyProperty[tokenId].isForSale = false;\n    \n    RealtyTxn memory realtyTxn = RealtyTxn({\n      tokenId: tokenId,\n      price: _price,\n      seller:payable( _tokenOwner[tokenId]),\n      buyer: payable(msg.sender),\n      date: block.timestamp\n    });\n\n    // to keep track of transactions\n    realtyTxns[tokenId].push(realtyTxn);\n\n    emit RealtyBought(\n      realtyTxn.tokenId,\n      realtyTxn.price,\n      realtyTxn.seller,\n      realtyTxn.buyer,\n      realtyTxn.date\n    );\n\n  }\n\n\n  function resellRealty(uint256 _tokenId, uint256 _price)payable public{\n    require(_tokenOwner[_tokenId] != address(0), \"NFT does not exist\");\n    require(_tokenOwner[_tokenId] == msg.sender, \"Invalid token owner\");\n    require(_price > 0, \"Input realty price\");\n\n    Realty memory realty = realtyProperty[_tokenId];\n    realty.price = _price;\n    realty.isForSale = true;\n\n    emit RealtyResell(realty.tokenId,realty.price, realty.isForSale);\n  }\n\n  function getMyRealties()public view returns(uint256[] memory){\n    uint256 numberOfTokens = _ownedTokensCount[msg.sender];\n    if(numberOfTokens == 0){\n      return new uint256[](0);\n    }\n    else{\n      uint256[] memory myRealties = new uint256[](numberOfTokens);\n      uint256 myRealtyIndex = 0;\n      for (uint256 i = 0; i < realties.length; i++){\n        if( realties[i].owner == payable(msg.sender)){\n          myRealties[myRealtyIndex] = realties[i].tokenId;\n          myRealtyIndex++;\n        }\n      }\n      return myRealties;\n    }\n  }\n\n\n  function getRealtyTxns(uint256 _tokenId)public view returns(RealtyTxn[] memory){\n    require(_tokenOwner[_tokenId] != address(0), \"NFT does not exist\");\n    return realtyTxns[_tokenId];\n  }\n\n\n  function findListing(uint256 _tokenId)view public returns(\n    uint256 _price, \n    address _owner, \n    bool _isForSale\n    ){\n    Realty memory realty = realtyProperty[_tokenId];\n    _price = realty.price; \n    _owner = realty.owner; \n    _isForSale = realty.isForSale; \n    return(\n      _price, \n      _owner, \n      _isForSale\n    );\n  }\n\n\n  function name() external view returns (string memory) {\n    return _name;\n  }\n\n\n  function symbol() external view returns (string memory) {\n    return _symbol;\n  }\n  \n\n  // mint new NFT\n  function mint(address _owner, uint256 _tokenId) public {\n    // token id should belong to the zero address, meaning that initially, NFT does not exist\n    require(_tokenOwner[_tokenId] == address(0), \"NFT already minted\");\n\n    _tokenOwner[_tokenId] = _owner;\n    _ownedTokensCount[_owner] += 1;\n    emit Transfer(address(0), _owner, _tokenId);\n  }\n\n\n  // setting token metadata uri with its content identifier (CID)\n  function setTokenUri(uint256 _tokenId, string memory _tokenCid)public  {\n    require(_tokenOwner[_tokenId] != address(0), \"NFT does not exist\");\n    string memory baseUri = \"ipfs://\";\n    string memory tokenUri = string(abi.encodePacked(baseUri, _tokenCid)); // string concatenation of baseURI with token CID\n    _tokenUri[_tokenId] = tokenUri;\n  }\n\n\n  function getTokenUri(uint256 _tokenId) public view returns(string memory) {\n    require(_tokenOwner[_tokenId] != address(0), \"NFT does not exist\");\n    return _tokenUri[_tokenId];\n  }\n  \n\n  // check the number of NFTs owned by an address\n  function balanceOf(address _owner) external view returns (uint256 balance){\n    return _ownedTokensCount[_owner];\n  }\n\n\n  // check the owner of a specific NFT\n  function ownerOf(uint256 _tokenId) external view returns (address owner){\n    require(_tokenOwner[_tokenId] != address(0), \"NFT does not exist\");\n    return _tokenOwner[_tokenId];\n  }\n\n\n  // approve another address(operator) to manage the NFT \n  function approve(address _to, uint256 _tokenId) external{\n    require(_tokenOwner[_tokenId] == msg.sender, \"Invalid token owner\");\n\n    _tokenApproval[_tokenId] = _to;\n    _isApprovedForSingle[msg.sender][_to][_tokenId] = true;\n    emit Approval(msg.sender, _to, _tokenId);\n  }\n\n\n  // get the approved address for a specific NFT\n  function getApproved(uint256 _tokenId) external view returns (address operator){\n    require(_tokenOwner[_tokenId] != address(0), \"NFT does not exist\");\n    return( _tokenApproval[_tokenId]  );\n  }\n\n\n  // approve of revoke the approval of an operator to handle all NFTs of the owner\n  function setApprovalForAll(address _operator, bool _approved) external{\n    require(_operator != address(0) , \"Invalid operator address\");\n    require(_operator != msg.sender, \"Operator cannot be the owner\");\n    _isApprovedForAll[msg.sender][_operator] = _approved;\n    \n    emit ApprovalForAll(msg.sender, _operator, _approved);\n  }\n\n\n  // check if an operator is approved to manage all NFTs of the owner\n  function isApprovedForAll(address _owner, address _operator) external view returns (bool){\n    require(_owner != address(0), \"Invalid owner address\");\n    require(_operator != address(0), \"Invalid operator address\");\n    return _isApprovedForAll[_owner][_operator];\n  }\n\n\n  // transfer an NFT from one address to another\n  function transferFrom(address _from, address _to, uint256 _tokenId) public{\n    require(_tokenOwner[_tokenId] != address(0), \"NFT does not exist\");\n    require(_to != address(0), \"Invalid recipient\");\n    require(msg.sender == _tokenOwner[_tokenId] || _isApprovedForSingle[_from][msg.sender][_tokenId] || _isApprovedForAll[_from][msg.sender], \"Unauthorized transfer operation\");\n\n    _tokenOwner[_tokenId] = _to;\n    _ownedTokensCount[_from] -= 1;\n    _ownedTokensCount[_to] += 1;\n\n    emit  Transfer(_from, _to, _tokenId);\n  }\n\n\n  // transfer an NFT from one address to another with safety check. designed to revert the transfer of NFTs to contracts that do not support the ERC721 interface\n  function safeTransferFrom(address _from, address _to, uint256 _tokenId) external{\n    transferFrom(_from, _to, _tokenId);\n    // a smart contract address has length of bytecode greater than zero\n    // so this checks if the _to address is an EOA, or of the recipient contract is able to handle NFTs with ERC721 interface\n    // if none of these is true, the NFT transfer is reverted.\n    require(\n      _to.code.length==0 || \n      IERC721Receiver(_to).onERC721Received(msg.sender, _from, _tokenId, \"\") == IERC721Receiver.onERC721Received.selector, \"Unsafe recipient\" \n    );\n  }\n\n}",
  "sourcePath": "/home/princeigwe/estate-luxe/contracts/elxERC721.sol",
  "compiler": {
    "name": "solc",
    "version": "0.8.14+commit.80d49f37.Emscripten.clang"
  },
  "schemaVersion": "3.4.16",
  "updatedAt": "2025-05-19T15:08:39.338Z",
  "networkType": "ethereum",
  "devdoc": {
    "kind": "dev",
    "methods": {},
    "version": 1
  },
  "userdoc": {
    "kind": "user",
    "methods": {},
    "version": 1
  }
}