{
  "contractName": "EstateLuxe",
  "abi": [
    {
      "inputs": [
        {
          "internalType": "string",
          "name": "name_",
          "type": "string"
        },
        {
          "internalType": "string",
          "name": "symbol_",
          "type": "string"
        }
      ],
      "stateMutability": "nonpayable",
      "type": "constructor"
    },
    {
      "anonymous": false,
      "inputs": [
        {
          "indexed": true,
          "internalType": "address",
          "name": "owner",
          "type": "address"
        },
        {
          "indexed": true,
          "internalType": "address",
          "name": "approved",
          "type": "address"
        },
        {
          "indexed": true,
          "internalType": "uint256",
          "name": "tokenId",
          "type": "uint256"
        }
      ],
      "name": "Approval",
      "type": "event"
    },
    {
      "anonymous": false,
      "inputs": [
        {
          "indexed": true,
          "internalType": "address",
          "name": "owner",
          "type": "address"
        },
        {
          "indexed": true,
          "internalType": "address",
          "name": "operator",
          "type": "address"
        },
        {
          "indexed": false,
          "internalType": "bool",
          "name": "approved",
          "type": "bool"
        }
      ],
      "name": "ApprovalForAll",
      "type": "event"
    },
    {
      "anonymous": false,
      "inputs": [
        {
          "indexed": false,
          "internalType": "uint256",
          "name": "tokenId",
          "type": "uint256"
        },
        {
          "indexed": false,
          "internalType": "uint256",
          "name": "price",
          "type": "uint256"
        },
        {
          "indexed": false,
          "internalType": "address payable",
          "name": "seller",
          "type": "address"
        },
        {
          "indexed": false,
          "internalType": "address payable",
          "name": "buyer",
          "type": "address"
        },
        {
          "indexed": false,
          "internalType": "uint256",
          "name": "date",
          "type": "uint256"
        }
      ],
      "name": "RealtyBought",
      "type": "event"
    },
    {
      "anonymous": false,
      "inputs": [
        {
          "indexed": false,
          "internalType": "uint256",
          "name": "tokenId",
          "type": "uint256"
        },
        {
          "indexed": false,
          "internalType": "string",
          "name": "location",
          "type": "string"
        },
        {
          "indexed": false,
          "internalType": "string",
          "name": "description",
          "type": "string"
        },
        {
          "indexed": false,
          "internalType": "uint256",
          "name": "price",
          "type": "uint256"
        },
        {
          "indexed": false,
          "internalType": "address",
          "name": "owner",
          "type": "address"
        },
        {
          "indexed": false,
          "internalType": "bool",
          "name": "isForSale",
          "type": "bool"
        },
        {
          "indexed": false,
          "internalType": "string",
          "name": "image",
          "type": "string"
        }
      ],
      "name": "RealtyListed",
      "type": "event"
    },
    {
      "anonymous": false,
      "inputs": [
        {
          "indexed": false,
          "internalType": "uint256",
          "name": "tokenId",
          "type": "uint256"
        },
        {
          "indexed": false,
          "internalType": "uint256",
          "name": "price",
          "type": "uint256"
        },
        {
          "indexed": false,
          "internalType": "bool",
          "name": "isForSale",
          "type": "bool"
        }
      ],
      "name": "RealtyResell",
      "type": "event"
    },
    {
      "anonymous": false,
      "inputs": [
        {
          "indexed": true,
          "internalType": "address",
          "name": "from",
          "type": "address"
        },
        {
          "indexed": true,
          "internalType": "address",
          "name": "to",
          "type": "address"
        },
        {
          "indexed": true,
          "internalType": "uint256",
          "name": "tokenId",
          "type": "uint256"
        }
      ],
      "name": "Transfer",
      "type": "event"
    },
    {
      "inputs": [
        {
          "internalType": "uint256",
          "name": "",
          "type": "uint256"
        }
      ],
      "name": "realties",
      "outputs": [
        {
          "internalType": "uint256",
          "name": "tokenId",
          "type": "uint256"
        },
        {
          "internalType": "string",
          "name": "location",
          "type": "string"
        },
        {
          "internalType": "string",
          "name": "description",
          "type": "string"
        },
        {
          "internalType": "uint256",
          "name": "price",
          "type": "uint256"
        },
        {
          "internalType": "address payable",
          "name": "owner",
          "type": "address"
        },
        {
          "internalType": "bool",
          "name": "isForSale",
          "type": "bool"
        },
        {
          "internalType": "string",
          "name": "image",
          "type": "string"
        }
      ],
      "stateMutability": "view",
      "type": "function",
      "constant": true
    },
    {
      "stateMutability": "payable",
      "type": "receive",
      "payable": true
    },
    {
      "inputs": [
        {
          "internalType": "string",
          "name": "_location",
          "type": "string"
        },
        {
          "internalType": "string",
          "name": "_description",
          "type": "string"
        },
        {
          "internalType": "uint256",
          "name": "_price",
          "type": "uint256"
        },
        {
          "internalType": "string",
          "name": "_image",
          "type": "string"
        },
        {
          "internalType": "string",
          "name": "_tokenCid",
          "type": "string"
        }
      ],
      "name": "createListing",
      "outputs": [],
      "stateMutability": "nonpayable",
      "type": "function"
    },
    {
      "inputs": [
        {
          "internalType": "uint256",
          "name": "tokenId",
          "type": "uint256"
        }
      ],
      "name": "buyRealty",
      "outputs": [],
      "stateMutability": "payable",
      "type": "function",
      "payable": true
    },
    {
      "inputs": [
        {
          "internalType": "uint256",
          "name": "_tokenId",
          "type": "uint256"
        },
        {
          "internalType": "uint256",
          "name": "_price",
          "type": "uint256"
        }
      ],
      "name": "resellRealty",
      "outputs": [],
      "stateMutability": "payable",
      "type": "function",
      "payable": true
    },
    {
      "inputs": [],
      "name": "getMyRealties",
      "outputs": [
        {
          "internalType": "uint256[]",
          "name": "",
          "type": "uint256[]"
        }
      ],
      "stateMutability": "view",
      "type": "function",
      "constant": true
    },
    {
      "inputs": [
        {
          "internalType": "uint256",
          "name": "_tokenId",
          "type": "uint256"
        }
      ],
      "name": "getRealtyTxns",
      "outputs": [
        {
          "components": [
            {
              "internalType": "uint256",
              "name": "tokenId",
              "type": "uint256"
            },
            {
              "internalType": "uint256",
              "name": "price",
              "type": "uint256"
            },
            {
              "internalType": "address payable",
              "name": "seller",
              "type": "address"
            },
            {
              "internalType": "address payable",
              "name": "buyer",
              "type": "address"
            },
            {
              "internalType": "uint256",
              "name": "date",
              "type": "uint256"
            }
          ],
          "internalType": "struct EstateLuxe.RealtyTxn[]",
          "name": "",
          "type": "tuple[]"
        }
      ],
      "stateMutability": "view",
      "type": "function",
      "constant": true
    },
    {
      "inputs": [
        {
          "internalType": "uint256",
          "name": "_tokenId",
          "type": "uint256"
        }
      ],
      "name": "findListing",
      "outputs": [
        {
          "internalType": "uint256",
          "name": "_price",
          "type": "uint256"
        },
        {
          "internalType": "address",
          "name": "_owner",
          "type": "address"
        },
        {
          "internalType": "bool",
          "name": "_isForSale",
          "type": "bool"
        }
      ],
      "stateMutability": "view",
      "type": "function",
      "constant": true
    },
    {
      "inputs": [],
      "name": "name",
      "outputs": [
        {
          "internalType": "string",
          "name": "",
          "type": "string"
        }
      ],
      "stateMutability": "view",
      "type": "function",
      "constant": true
    },
    {
      "inputs": [],
      "name": "symbol",
      "outputs": [
        {
          "internalType": "string",
          "name": "",
          "type": "string"
        }
      ],
      "stateMutability": "view",
      "type": "function",
      "constant": true
    },
    {
      "inputs": [
        {
          "internalType": "address",
          "name": "_owner",
          "type": "address"
        },
        {
          "internalType": "uint256",
          "name": "_tokenId",
          "type": "uint256"
        }
      ],
      "name": "mint",
      "outputs": [],
      "stateMutability": "nonpayable",
      "type": "function"
    },
    {
      "inputs": [
        {
          "internalType": "uint256",
          "name": "_tokenId",
          "type": "uint256"
        },
        {
          "internalType": "string",
          "name": "_tokenCid",
          "type": "string"
        }
      ],
      "name": "setTokenUri",
      "outputs": [],
      "stateMutability": "nonpayable",
      "type": "function"
    },
    {
      "inputs": [
        {
          "internalType": "uint256",
          "name": "_tokenId",
          "type": "uint256"
        }
      ],
      "name": "getTokenUri",
      "outputs": [
        {
          "internalType": "string",
          "name": "",
          "type": "string"
        }
      ],
      "stateMutability": "view",
      "type": "function",
      "constant": true
    },
    {
      "inputs": [
        {
          "internalType": "address",
          "name": "_owner",
          "type": "address"
        }
      ],
      "name": "balanceOf",
      "outputs": [
        {
          "internalType": "uint256",
          "name": "balance",
          "type": "uint256"
        }
      ],
      "stateMutability": "view",
      "type": "function",
      "constant": true
    },
    {
      "inputs": [
        {
          "internalType": "uint256",
          "name": "_tokenId",
          "type": "uint256"
        }
      ],
      "name": "ownerOf",
      "outputs": [
        {
          "internalType": "address",
          "name": "owner",
          "type": "address"
        }
      ],
      "stateMutability": "view",
      "type": "function",
      "constant": true
    },
    {
      "inputs": [
        {
          "internalType": "address",
          "name": "_to",
          "type": "address"
        },
        {
          "internalType": "uint256",
          "name": "_tokenId",
          "type": "uint256"
        }
      ],
      "name": "approve",
      "outputs": [],
      "stateMutability": "nonpayable",
      "type": "function"
    },
    {
      "inputs": [
        {
          "internalType": "uint256",
          "name": "_tokenId",
          "type": "uint256"
        }
      ],
      "name": "getApproved",
      "outputs": [
        {
          "internalType": "address",
          "name": "operator",
          "type": "address"
        }
      ],
      "stateMutability": "view",
      "type": "function",
      "constant": true
    },
    {
      "inputs": [
        {
          "internalType": "address",
          "name": "_operator",
          "type": "address"
        },
        {
          "internalType": "bool",
          "name": "_approved",
          "type": "bool"
        }
      ],
      "name": "setApprovalForAll",
      "outputs": [],
      "stateMutability": "nonpayable",
      "type": "function"
    },
    {
      "inputs": [
        {
          "internalType": "address",
          "name": "_owner",
          "type": "address"
        },
        {
          "internalType": "address",
          "name": "_operator",
          "type": "address"
        }
      ],
      "name": "isApprovedForAll",
      "outputs": [
        {
          "internalType": "bool",
          "name": "",
          "type": "bool"
        }
      ],
      "stateMutability": "view",
      "type": "function",
      "constant": true
    },
    {
      "inputs": [
        {
          "internalType": "address",
          "name": "_from",
          "type": "address"
        },
        {
          "internalType": "address",
          "name": "_to",
          "type": "address"
        },
        {
          "internalType": "uint256",
          "name": "_tokenId",
          "type": "uint256"
        }
      ],
      "name": "transferFrom",
      "outputs": [],
      "stateMutability": "nonpayable",
      "type": "function"
    },
    {
      "inputs": [
        {
          "internalType": "address",
          "name": "_from",
          "type": "address"
        },
        {
          "internalType": "address",
          "name": "_to",
          "type": "address"
        },
        {
          "internalType": "uint256",
          "name": "_tokenId",
          "type": "uint256"
        }
      ],
      "name": "safeTransferFrom",
      "outputs": [],
      "stateMutability": "nonpayable",
      "type": "function"
    }
  ],
  "bytecode": "0x60806040523480156200001157600080fd5b50604051620045cb380380620045cb8339818101604052810190620000379190620002be565b81600090805190602001906200004f92919062000071565b5080600190805190602001906200006892919062000071565b505050620003a7565b8280546200007f9062000372565b90600052602060002090601f016020900481019282620000a35760008555620000ef565b82601f10620000be57805160ff1916838001178555620000ef565b82800160010185558215620000ef579182015b82811115620000ee578251825591602001919060010190620000d1565b5b509050620000fe919062000102565b5090565b5b808211156200011d57600081600090555060010162000103565b5090565b6000604051905090565b600080fd5b600080fd5b600080fd5b600080fd5b6000601f19601f8301169050919050565b7f4e487b7100000000000000000000000000000000000000000000000000000000600052604160045260246000fd5b6200018a826200013f565b810181811067ffffffffffffffff82111715620001ac57620001ab62000150565b5b80604052505050565b6000620001c162000121565b9050620001cf82826200017f565b919050565b600067ffffffffffffffff821115620001f257620001f162000150565b5b620001fd826200013f565b9050602081019050919050565b60005b838110156200022a5780820151818401526020810190506200020d565b838111156200023a576000848401525b50505050565b6000620002576200025184620001d4565b620001b5565b9050828152602081018484840111156200027657620002756200013a565b5b620002838482856200020a565b509392505050565b600082601f830112620002a357620002a262000135565b5b8151620002b584826020860162000240565b91505092915050565b60008060408385031215620002d857620002d76200012b565b5b600083015167ffffffffffffffff811115620002f957620002f862000130565b5b62000307858286016200028b565b925050602083015167ffffffffffffffff8111156200032b576200032a62000130565b5b62000339858286016200028b565b9150509250929050565b7f4e487b7100000000000000000000000000000000000000000000000000000000600052602260045260246000fd5b600060028204905060018216806200038b57607f821691505b602082108103620003a157620003a062000343565b5b50919050565b61421480620003b76000396000f3fe6080604052600436106101235760003560e01c80636352211e116100a0578063a22cb46511610064578063a22cb465146103e8578063a3dcce4114610411578063e985e9c51461043a578063eaca6c5314610477578063eea74443146104ba5761012a565b80636352211e146102c757806370a08231146103045780638ad913451461034157806395d89b411461037e5780639aefcb0d146103a95761012a565b80632ca584e8116100e75780632ca584e81461020557806340c10f191461023057806342842e0e14610259578063475c477d1461028257806357f7789e1461029e5761012a565b806306fdde031461012f578063081812fc1461015a578063095ea7b314610197578063174e4fd1146101c057806323b872dd146101dc5761012a565b3661012a57005b600080fd5b34801561013b57600080fd5b506101446104f7565b6040516101519190612d36565b60405180910390f35b34801561016657600080fd5b50610181600480360381019061017c9190612da2565b610589565b60405161018e9190612e10565b60405180910390f35b3480156101a357600080fd5b506101be60048036038101906101b99190612e57565b610667565b005b6101da60048036038101906101d59190612e97565b61085f565b005b3480156101e857600080fd5b5061020360048036038101906101fe9190612ed7565b610ca9565b005b34801561021157600080fd5b5061021a6110ee565b6040516102279190612fe8565b60405180910390f35b34801561023c57600080fd5b5061025760048036038101906102529190612e57565b6112d6565b005b34801561026557600080fd5b50610280600480360381019061027b9190612ed7565b611481565b005b61029c60048036038101906102979190612da2565b6115b9565b005b3480156102aa57600080fd5b506102c560048036038101906102c0919061313f565b611ac6565b005b3480156102d357600080fd5b506102ee60048036038101906102e99190612da2565b611bf6565b6040516102fb9190612e10565b60405180910390f35b34801561031057600080fd5b5061032b6004803603810190610326919061319b565b611c33565b60405161033891906131d7565b60405180910390f35b34801561034d57600080fd5b5061036860048036038101906103639190612da2565b611c7c565b6040516103759190612d36565b60405180910390f35b34801561038a57600080fd5b50610393611dc3565b6040516103a09190612d36565b60405180910390f35b3480156103b557600080fd5b506103d060048036038101906103cb9190612da2565b611e55565b6040516103df9392919061320d565b60405180910390f35b3480156103f457600080fd5b5061040f600480360381019061040a9190613270565b6120d3565b005b34801561041d57600080fd5b50610438600480360381019061043391906132b0565b6122ad565b005b34801561044657600080fd5b50610461600480360381019061045c919061339b565b612694565b60405161046e91906133db565b60405180910390f35b34801561048357600080fd5b5061049e60048036038101906104999190612da2565b612805565b6040516104b19796959493929190613417565b60405180910390f35b3480156104c657600080fd5b506104e160048036038101906104dc9190612da2565b612a1c565b6040516104ee91906135c1565b60405180910390f35b60606000805461050690613612565b80601f016020809104026020016040519081016040528092919081815260200182805461053290613612565b801561057f5780601f106105545761010080835404028352916020019161057f565b820191906000526020600020905b81548152906001019060200180831161056257829003601f168201915b5050505050905090565b60008073ffffffffffffffffffffffffffffffffffffffff166004600084815260200190815260200160002060009054906101000a900473ffffffffffffffffffffffffffffffffffffffff1673ffffffffffffffffffffffffffffffffffffffff160361062c576040517f08c379a00000000000000000000000000000000000000000000000000000000081526004016106239061368f565b60405180910390fd5b6008600083815260200190815260200160002060009054906101000a900473ffffffffffffffffffffffffffffffffffffffff169050919050565b3373ffffffffffffffffffffffffffffffffffffffff166004600083815260200190815260200160002060009054906101000a900473ffffffffffffffffffffffffffffffffffffffff1673ffffffffffffffffffffffffffffffffffffffff1614610708576040517f08c379a00000000000000000000000000000000000000000000000000000000081526004016106ff906136fb565b60405180910390fd5b816008600083815260200190815260200160002060006101000a81548173ffffffffffffffffffffffffffffffffffffffff021916908373ffffffffffffffffffffffffffffffffffffffff1602179055506001600760003373ffffffffffffffffffffffffffffffffffffffff1673ffffffffffffffffffffffffffffffffffffffff16815260200190815260200160002060008473ffffffffffffffffffffffffffffffffffffffff1673ffffffffffffffffffffffffffffffffffffffff168152602001908152602001600020600083815260200190815260200160002060006101000a81548160ff021916908315150217905550808273ffffffffffffffffffffffffffffffffffffffff163373ffffffffffffffffffffffffffffffffffffffff167f8c5be1e5ebec7d5bd14f71427d1e84f3dd0314c0f7b2291e5b200ac8c7c3b92560405160405180910390a45050565b600073ffffffffffffffffffffffffffffffffffffffff166004600084815260200190815260200160002060009054906101000a900473ffffffffffffffffffffffffffffffffffffffff1673ffffffffffffffffffffffffffffffffffffffff1603610901576040517f08c379a00000000000000000000000000000000000000000000000000000000081526004016108f89061368f565b60405180910390fd5b3373ffffffffffffffffffffffffffffffffffffffff166004600084815260200190815260200160002060009054906101000a900473ffffffffffffffffffffffffffffffffffffffff1673ffffffffffffffffffffffffffffffffffffffff16146109a2576040517f08c379a0000000000000000000000000000000000000000000000000000000008152600401610999906136fb565b60405180910390fd5b600081116109e5576040517f08c379a00000000000000000000000000000000000000000000000000000000081526004016109dc90613767565b60405180910390fd5b6000600960008481526020019081526020016000206040518060e001604052908160008201548152602001600182018054610a1f90613612565b80601f0160208091040260200160405190810160405280929190818152602001828054610a4b90613612565b8015610a985780601f10610a6d57610100808354040283529160200191610a98565b820191906000526020600020905b815481529060010190602001808311610a7b57829003601f168201915b50505050508152602001600282018054610ab190613612565b80601f0160208091040260200160405190810160405280929190818152602001828054610add90613612565b8015610b2a5780601f10610aff57610100808354040283529160200191610b2a565b820191906000526020600020905b815481529060010190602001808311610b0d57829003601f168201915b50505050508152602001600382015481526020016004820160009054906101000a900473ffffffffffffffffffffffffffffffffffffffff1673ffffffffffffffffffffffffffffffffffffffff1673ffffffffffffffffffffffffffffffffffffffff1681526020016004820160149054906101000a900460ff16151515158152602001600582018054610bbe90613612565b80601f0160208091040260200160405190810160405280929190818152602001828054610bea90613612565b8015610c375780601f10610c0c57610100808354040283529160200191610c37565b820191906000526020600020905b815481529060010190602001808311610c1a57829003601f168201915b50505050508152505090508181606001818152505060018160a00190151590811515815250507ffbc096da65d667d456e87182b24ab28c469855240d3fd53d9685b2a6954542c0816000015182606001518360a00151604051610c9c93929190613787565b60405180910390a1505050565b600073ffffffffffffffffffffffffffffffffffffffff166004600083815260200190815260200160002060009054906101000a900473ffffffffffffffffffffffffffffffffffffffff1673ffffffffffffffffffffffffffffffffffffffff1603610d4b576040517f08c379a0000000000000000000000000000000000000000000000000000000008152600401610d429061368f565b60405180910390fd5b600073ffffffffffffffffffffffffffffffffffffffff168273ffffffffffffffffffffffffffffffffffffffff1603610dba576040517f08c379a0000000000000000000000000000000000000000000000000000000008152600401610db19061380a565b60405180910390fd5b6004600082815260200190815260200160002060009054906101000a900473ffffffffffffffffffffffffffffffffffffffff1673ffffffffffffffffffffffffffffffffffffffff163373ffffffffffffffffffffffffffffffffffffffff161480610ebe5750600760008473ffffffffffffffffffffffffffffffffffffffff1673ffffffffffffffffffffffffffffffffffffffff16815260200190815260200160002060003373ffffffffffffffffffffffffffffffffffffffff1673ffffffffffffffffffffffffffffffffffffffff168152602001908152602001600020600082815260200190815260200160002060009054906101000a900460ff165b80610f4f5750600660008473ffffffffffffffffffffffffffffffffffffffff1673ffffffffffffffffffffffffffffffffffffffff16815260200190815260200160002060003373ffffffffffffffffffffffffffffffffffffffff1673ffffffffffffffffffffffffffffffffffffffff16815260200190815260200160002060009054906101000a900460ff165b610f8e576040517f08c379a0000000000000000000000000000000000000000000000000000000008152600401610f8590613876565b60405180910390fd5b816004600083815260200190815260200160002060006101000a81548173ffffffffffffffffffffffffffffffffffffffff021916908373ffffffffffffffffffffffffffffffffffffffff1602179055506001600560008573ffffffffffffffffffffffffffffffffffffffff1673ffffffffffffffffffffffffffffffffffffffff168152602001908152602001600020600082825461103091906138c5565b925050819055506001600560008473ffffffffffffffffffffffffffffffffffffffff1673ffffffffffffffffffffffffffffffffffffffff168152602001908152602001600020600082825461108791906138f9565b92505081905550808273ffffffffffffffffffffffffffffffffffffffff168473ffffffffffffffffffffffffffffffffffffffff167fddf252ad1be2c89b69c2b068fc378daa952ba7f163c4a11628f55a4df523b3ef60405160405180910390a4505050565b60606000600560003373ffffffffffffffffffffffffffffffffffffffff1673ffffffffffffffffffffffffffffffffffffffff1681526020019081526020016000205490506000810361118e57600067ffffffffffffffff81111561115757611156613014565b5b6040519080825280602002602001820160405280156111855781602001602082028036833780820191505090505b509150506112d3565b60008167ffffffffffffffff8111156111aa576111a9613014565b5b6040519080825280602002602001820160405280156111d85781602001602082028036833780820191505090505b5090506000805b6003805490508110156112cb573373ffffffffffffffffffffffffffffffffffffffff16600382815481106112175761121661394f565b5b906000526020600020906006020160040160009054906101000a900473ffffffffffffffffffffffffffffffffffffffff1673ffffffffffffffffffffffffffffffffffffffff16036112b857600381815481106112785761127761394f565b5b90600052602060002090600602016000015483838151811061129d5761129c61394f565b5b60200260200101818152505081806112b49061397e565b9250505b80806112c39061397e565b9150506111df565b508193505050505b90565b600073ffffffffffffffffffffffffffffffffffffffff166004600083815260200190815260200160002060009054906101000a900473ffffffffffffffffffffffffffffffffffffffff1673ffffffffffffffffffffffffffffffffffffffff1614611378576040517f08c379a000000000000000000000000000000000000000000000000000000000815260040161136f90613a12565b60405180910390fd5b816004600083815260200190815260200160002060006101000a81548173ffffffffffffffffffffffffffffffffffffffff021916908373ffffffffffffffffffffffffffffffffffffffff1602179055506001600560008473ffffffffffffffffffffffffffffffffffffffff1673ffffffffffffffffffffffffffffffffffffffff168152602001908152602001600020600082825461141a91906138f9565b92505081905550808273ffffffffffffffffffffffffffffffffffffffff16600073ffffffffffffffffffffffffffffffffffffffff167fddf252ad1be2c89b69c2b068fc378daa952ba7f163c4a11628f55a4df523b3ef60405160405180910390a45050565b61148c838383610ca9565b60008273ffffffffffffffffffffffffffffffffffffffff163b1480611575575063150b7a0260e01b7bffffffffffffffffffffffffffffffffffffffffffffffffffffffff19168273ffffffffffffffffffffffffffffffffffffffff1663150b7a023386856040518463ffffffff1660e01b815260040161151193929190613a69565b6020604051808303816000875af1158015611530573d6000803e3d6000fd5b505050506040513d601f19601f820116820180604052508101906115549190613b0b565b7bffffffffffffffffffffffffffffffffffffffffffffffffffffffff1916145b6115b4576040517f08c379a00000000000000000000000000000000000000000000000000000000081526004016115ab90613b84565b60405180910390fd5b505050565b600073ffffffffffffffffffffffffffffffffffffffff166004600083815260200190815260200160002060009054906101000a900473ffffffffffffffffffffffffffffffffffffffff1673ffffffffffffffffffffffffffffffffffffffff160361165b576040517f08c379a000000000000000000000000000000000000000000000000000000000815260040161165290613bf0565b60405180910390fd5b600080600061166984611e55565b9250925092508173ffffffffffffffffffffffffffffffffffffffff163373ffffffffffffffffffffffffffffffffffffffff16036116dd576040517f08c379a00000000000000000000000000000000000000000000000000000000081526004016116d490613c5c565b60405180910390fd5b82341015611720576040517f08c379a000000000000000000000000000000000000000000000000000000000815260040161171790613cc8565b60405180910390fd5b80611760576040517f08c379a000000000000000000000000000000000000000000000000000000000815260040161175790613d34565b60405180910390fd5b823411156117bb573373ffffffffffffffffffffffffffffffffffffffff166108fc843461178e91906138c5565b9081150290604051600060405180830381858888f193505050501580156117b9573d6000803e3d6000fd5b505b6004600085815260200190815260200160002060009054906101000a900473ffffffffffffffffffffffffffffffffffffffff1673ffffffffffffffffffffffffffffffffffffffff166108fc349081150290604051600060405180830381858888f19350505050158015611834573d6000803e3d6000fd5b506118736004600086815260200190815260200160002060009054906101000a900473ffffffffffffffffffffffffffffffffffffffff163386610ca9565b336009600086815260200190815260200160002060040160006101000a81548173ffffffffffffffffffffffffffffffffffffffff021916908373ffffffffffffffffffffffffffffffffffffffff16021790555060006009600086815260200190815260200160002060040160146101000a81548160ff02191690831515021790555060006040518060a001604052808681526020018581526020016004600088815260200190815260200160002060009054906101000a900473ffffffffffffffffffffffffffffffffffffffff1673ffffffffffffffffffffffffffffffffffffffff1681526020013373ffffffffffffffffffffffffffffffffffffffff168152602001428152509050600a6000868152602001908152602001600020819080600181540180825580915050600190039060005260206000209060050201600090919091909150600082015181600001556020820151816001015560408201518160020160006101000a81548173ffffffffffffffffffffffffffffffffffffffff021916908373ffffffffffffffffffffffffffffffffffffffff16021790555060608201518160030160006101000a81548173ffffffffffffffffffffffffffffffffffffffff021916908373ffffffffffffffffffffffffffffffffffffffff1602179055506080820151816004015550507f574de17373d77e73e9ae0156fa7b29453037eb4a023085cd36a922a3c109295f81600001518260200151836040015184606001518560800151604051611ab7959493929190613d54565b60405180910390a15050505050565b600073ffffffffffffffffffffffffffffffffffffffff166004600084815260200190815260200160002060009054906101000a900473ffffffffffffffffffffffffffffffffffffffff1673ffffffffffffffffffffffffffffffffffffffff1603611b68576040517f08c379a0000000000000000000000000000000000000000000000000000000008152600401611b5f9061368f565b60405180910390fd5b60006040518060400160405280600781526020017f697066733a2f2f00000000000000000000000000000000000000000000000000815250905060008183604051602001611bb7929190613de3565b604051602081830303815290604052905080600b60008681526020019081526020016000209080519060200190611bef929190612bfa565b5050505050565b60006004600083815260200190815260200160002060009054906101000a900473ffffffffffffffffffffffffffffffffffffffff169050919050565b6000600560008373ffffffffffffffffffffffffffffffffffffffff1673ffffffffffffffffffffffffffffffffffffffff168152602001908152602001600020549050919050565b6060600073ffffffffffffffffffffffffffffffffffffffff166004600084815260200190815260200160002060009054906101000a900473ffffffffffffffffffffffffffffffffffffffff1673ffffffffffffffffffffffffffffffffffffffff1603611d20576040517f08c379a0000000000000000000000000000000000000000000000000000000008152600401611d179061368f565b60405180910390fd5b600b60008381526020019081526020016000208054611d3e90613612565b80601f0160208091040260200160405190810160405280929190818152602001828054611d6a90613612565b8015611db75780601f10611d8c57610100808354040283529160200191611db7565b820191906000526020600020905b815481529060010190602001808311611d9a57829003601f168201915b50505050509050919050565b606060018054611dd290613612565b80601f0160208091040260200160405190810160405280929190818152602001828054611dfe90613612565b8015611e4b5780601f10611e2057610100808354040283529160200191611e4b565b820191906000526020600020905b815481529060010190602001808311611e2e57829003601f168201915b5050505050905090565b600080600080600960008681526020019081526020016000206040518060e001604052908160008201548152602001600182018054611e9390613612565b80601f0160208091040260200160405190810160405280929190818152602001828054611ebf90613612565b8015611f0c5780601f10611ee157610100808354040283529160200191611f0c565b820191906000526020600020905b815481529060010190602001808311611eef57829003601f168201915b50505050508152602001600282018054611f2590613612565b80601f0160208091040260200160405190810160405280929190818152602001828054611f5190613612565b8015611f9e5780601f10611f7357610100808354040283529160200191611f9e565b820191906000526020600020905b815481529060010190602001808311611f8157829003601f168201915b50505050508152602001600382015481526020016004820160009054906101000a900473ffffffffffffffffffffffffffffffffffffffff1673ffffffffffffffffffffffffffffffffffffffff1673ffffffffffffffffffffffffffffffffffffffff1681526020016004820160149054906101000a900460ff1615151515815260200160058201805461203290613612565b80601f016020809104026020016040519081016040528092919081815260200182805461205e90613612565b80156120ab5780601f10612080576101008083540402835291602001916120ab565b820191906000526020600020905b81548152906001019060200180831161208e57829003601f168201915b505050505081525050905080606001519350806080015192508060a001519150509193909250565b600073ffffffffffffffffffffffffffffffffffffffff168273ffffffffffffffffffffffffffffffffffffffff1603612142576040517f08c379a000000000000000000000000000000000000000000000000000000000815260040161213990613e53565b60405180910390fd5b3373ffffffffffffffffffffffffffffffffffffffff168273ffffffffffffffffffffffffffffffffffffffff16036121b0576040517f08c379a00000000000000000000000000000000000000000000000000000000081526004016121a790613ebf565b60405180910390fd5b80600660003373ffffffffffffffffffffffffffffffffffffffff1673ffffffffffffffffffffffffffffffffffffffff16815260200190815260200160002060008473ffffffffffffffffffffffffffffffffffffffff1673ffffffffffffffffffffffffffffffffffffffff16815260200190815260200160002060006101000a81548160ff0219169083151502179055508173ffffffffffffffffffffffffffffffffffffffff163373ffffffffffffffffffffffffffffffffffffffff167f17307eab39ab6107e8899845ad3d59bd9653f200f220920489ca2b5937696c31836040516122a191906133db565b60405180910390a35050565b60008551116122f1576040517f08c379a00000000000000000000000000000000000000000000000000000000081526004016122e890613f2b565b60405180910390fd5b6000845111612335576040517f08c379a000000000000000000000000000000000000000000000000000000000815260040161232c90613f97565b60405180910390fd5b60008311612378576040517f08c379a000000000000000000000000000000000000000000000000000000000815260040161236f90614003565b60405180910390fd5b60008251116123bc576040517f08c379a00000000000000000000000000000000000000000000000000000000081526004016123b39061406f565b60405180910390fd5b60006040518060e0016040528060025481526020018781526020018681526020018581526020013373ffffffffffffffffffffffffffffffffffffffff1681526020016001151581526020018481525090508060096000600254815260200190815260200160002060008201518160000155602082015181600101908051906020019061244a929190612bfa565b506040820151816002019080519060200190612467929190612bfa565b506060820151816003015560808201518160040160006101000a81548173ffffffffffffffffffffffffffffffffffffffff021916908373ffffffffffffffffffffffffffffffffffffffff16021790555060a08201518160040160146101000a81548160ff02191690831515021790555060c08201518160050190805190602001906124f5929190612bfa565b50905050600381908060018154018082558091505060019003906000526020600020906006020160009091909190915060008201518160000155602082015181600101908051906020019061254b929190612bfa565b506040820151816002019080519060200190612568929190612bfa565b506060820151816003015560808201518160040160006101000a81548173ffffffffffffffffffffffffffffffffffffffff021916908373ffffffffffffffffffffffffffffffffffffffff16021790555060a08201518160040160146101000a81548160ff02191690831515021790555060c08201518160050190805190602001906125f6929190612bfa565b5050506126073382600001516112d6565b612615816000015183611ac6565b600260008154809291906126289061397e565b91905055507fc6031684618fe9e70fe454a982b61ce91abed316bc6ff57faa7a40b6f9103798816000015182602001518360400151846060015185608001518660a001518760c0015160405161268497969594939291906140ee565b60405180910390a1505050505050565b60008073ffffffffffffffffffffffffffffffffffffffff168373ffffffffffffffffffffffffffffffffffffffff1603612704576040517f08c379a00000000000000000000000000000000000000000000000000000000081526004016126fb906141be565b60405180910390fd5b600073ffffffffffffffffffffffffffffffffffffffff168273ffffffffffffffffffffffffffffffffffffffff1603612773576040517f08c379a000000000000000000000000000000000000000000000000000000000815260040161276a90613e53565b60405180910390fd5b600660008473ffffffffffffffffffffffffffffffffffffffff1673ffffffffffffffffffffffffffffffffffffffff16815260200190815260200160002060008373ffffffffffffffffffffffffffffffffffffffff1673ffffffffffffffffffffffffffffffffffffffff16815260200190815260200160002060009054906101000a900460ff16905092915050565b6003818154811061281557600080fd5b906000526020600020906006020160009150905080600001549080600101805461283e90613612565b80601f016020809104026020016040519081016040528092919081815260200182805461286a90613612565b80156128b75780601f1061288c576101008083540402835291602001916128b7565b820191906000526020600020905b81548152906001019060200180831161289a57829003601f168201915b5050505050908060020180546128cc90613612565b80601f01602080910402602001604051908101604052809291908181526020018280546128f890613612565b80156129455780601f1061291a57610100808354040283529160200191612945565b820191906000526020600020905b81548152906001019060200180831161292857829003601f168201915b5050505050908060030154908060040160009054906101000a900473ffffffffffffffffffffffffffffffffffffffff16908060040160149054906101000a900460ff169080600501805461299990613612565b80601f01602080910402602001604051908101604052809291908181526020018280546129c590613612565b8015612a125780601f106129e757610100808354040283529160200191612a12565b820191906000526020600020905b8154815290600101906020018083116129f557829003601f168201915b5050505050905087565b6060600073ffffffffffffffffffffffffffffffffffffffff166004600084815260200190815260200160002060009054906101000a900473ffffffffffffffffffffffffffffffffffffffff1673ffffffffffffffffffffffffffffffffffffffff1603612ac0576040517f08c379a0000000000000000000000000000000000000000000000000000000008152600401612ab79061368f565b60405180910390fd5b600a6000838152602001908152602001600020805480602002602001604051908101604052809291908181526020016000905b82821015612bef57838290600052602060002090600502016040518060a001604052908160008201548152602001600182015481526020016002820160009054906101000a900473ffffffffffffffffffffffffffffffffffffffff1673ffffffffffffffffffffffffffffffffffffffff1673ffffffffffffffffffffffffffffffffffffffff1681526020016003820160009054906101000a900473ffffffffffffffffffffffffffffffffffffffff1673ffffffffffffffffffffffffffffffffffffffff1673ffffffffffffffffffffffffffffffffffffffff16815260200160048201548152505081526020019060010190612af3565b505050509050919050565b828054612c0690613612565b90600052602060002090601f016020900481019282612c285760008555612c6f565b82601f10612c4157805160ff1916838001178555612c6f565b82800160010185558215612c6f579182015b82811115612c6e578251825591602001919060010190612c53565b5b509050612c7c9190612c80565b5090565b5b80821115612c99576000816000905550600101612c81565b5090565b600081519050919050565b600082825260208201905092915050565b60005b83811015612cd7578082015181840152602081019050612cbc565b83811115612ce6576000848401525b50505050565b6000601f19601f8301169050919050565b6000612d0882612c9d565b612d128185612ca8565b9350612d22818560208601612cb9565b612d2b81612cec565b840191505092915050565b60006020820190508181036000830152612d508184612cfd565b905092915050565b6000604051905090565b600080fd5b600080fd5b6000819050919050565b612d7f81612d6c565b8114612d8a57600080fd5b50565b600081359050612d9c81612d76565b92915050565b600060208284031215612db857612db7612d62565b5b6000612dc684828501612d8d565b91505092915050565b600073ffffffffffffffffffffffffffffffffffffffff82169050919050565b6000612dfa82612dcf565b9050919050565b612e0a81612def565b82525050565b6000602082019050612e256000830184612e01565b92915050565b612e3481612def565b8114612e3f57600080fd5b50565b600081359050612e5181612e2b565b92915050565b60008060408385031215612e6e57612e6d612d62565b5b6000612e7c85828601612e42565b9250506020612e8d85828601612d8d565b9150509250929050565b60008060408385031215612eae57612ead612d62565b5b6000612ebc85828601612d8d565b9250506020612ecd85828601612d8d565b9150509250929050565b600080600060608486031215612ef057612eef612d62565b5b6000612efe86828701612e42565b9350506020612f0f86828701612e42565b9250506040612f2086828701612d8d565b9150509250925092565b600081519050919050565b600082825260208201905092915050565b6000819050602082019050919050565b612f5f81612d6c565b82525050565b6000612f718383612f56565b60208301905092915050565b6000602082019050919050565b6000612f9582612f2a565b612f9f8185612f35565b9350612faa83612f46565b8060005b83811015612fdb578151612fc28882612f65565b9750612fcd83612f7d565b925050600181019050612fae565b5085935050505092915050565b600060208201905081810360008301526130028184612f8a565b905092915050565b600080fd5b600080fd5b7f4e487b7100000000000000000000000000000000000000000000000000000000600052604160045260246000fd5b61304c82612cec565b810181811067ffffffffffffffff8211171561306b5761306a613014565b5b80604052505050565b600061307e612d58565b905061308a8282613043565b919050565b600067ffffffffffffffff8211156130aa576130a9613014565b5b6130b382612cec565b9050602081019050919050565b82818337600083830152505050565b60006130e26130dd8461308f565b613074565b9050828152602081018484840111156130fe576130fd61300f565b5b6131098482856130c0565b509392505050565b600082601f8301126131265761312561300a565b5b81356131368482602086016130cf565b91505092915050565b6000806040838503121561315657613155612d62565b5b600061316485828601612d8d565b925050602083013567ffffffffffffffff81111561318557613184612d67565b5b61319185828601613111565b9150509250929050565b6000602082840312156131b1576131b0612d62565b5b60006131bf84828501612e42565b91505092915050565b6131d181612d6c565b82525050565b60006020820190506131ec60008301846131c8565b92915050565b60008115159050919050565b613207816131f2565b82525050565b600060608201905061322260008301866131c8565b61322f6020830185612e01565b61323c60408301846131fe565b949350505050565b61324d816131f2565b811461325857600080fd5b50565b60008135905061326a81613244565b92915050565b6000806040838503121561328757613286612d62565b5b600061329585828601612e42565b92505060206132a68582860161325b565b9150509250929050565b600080600080600060a086880312156132cc576132cb612d62565b5b600086013567ffffffffffffffff8111156132ea576132e9612d67565b5b6132f688828901613111565b955050602086013567ffffffffffffffff81111561331757613316612d67565b5b61332388828901613111565b945050604061333488828901612d8d565b935050606086013567ffffffffffffffff81111561335557613354612d67565b5b61336188828901613111565b925050608086013567ffffffffffffffff81111561338257613381612d67565b5b61338e88828901613111565b9150509295509295909350565b600080604083850312156133b2576133b1612d62565b5b60006133c085828601612e42565b92505060206133d185828601612e42565b9150509250929050565b60006020820190506133f060008301846131fe565b92915050565b600061340182612dcf565b9050919050565b613411816133f6565b82525050565b600060e08201905061342c600083018a6131c8565b818103602083015261343e8189612cfd565b905081810360408301526134528188612cfd565b905061346160608301876131c8565b61346e6080830186613408565b61347b60a08301856131fe565b81810360c083015261348d8184612cfd565b905098975050505050505050565b600081519050919050565b600082825260208201905092915050565b6000819050602082019050919050565b6134d0816133f6565b82525050565b60a0820160008201516134ec6000850182612f56565b5060208201516134ff6020850182612f56565b50604082015161351260408501826134c7565b50606082015161352560608501826134c7565b5060808201516135386080850182612f56565b50505050565b600061354a83836134d6565b60a08301905092915050565b6000602082019050919050565b600061356e8261349b565b61357881856134a6565b9350613583836134b7565b8060005b838110156135b457815161359b888261353e565b97506135a683613556565b925050600181019050613587565b5085935050505092915050565b600060208201905081810360008301526135db8184613563565b905092915050565b7f4e487b7100000000000000000000000000000000000000000000000000000000600052602260045260246000fd5b6000600282049050600182168061362a57607f821691505b60208210810361363d5761363c6135e3565b5b50919050565b7f4e465420646f6573206e6f742065786973740000000000000000000000000000600082015250565b6000613679601283612ca8565b915061368482613643565b602082019050919050565b600060208201905081810360008301526136a88161366c565b9050919050565b7f496e76616c696420746f6b656e206f776e657200000000000000000000000000600082015250565b60006136e5601383612ca8565b91506136f0826136af565b602082019050919050565b60006020820190508181036000830152613714816136d8565b9050919050565b7f496e707574207265616c74792070726963650000000000000000000000000000600082015250565b6000613751601283612ca8565b915061375c8261371b565b602082019050919050565b6000602082019050818103600083015261378081613744565b9050919050565b600060608201905061379c60008301866131c8565b6137a960208301856131c8565b6137b660408301846131fe565b949350505050565b7f496e76616c696420726563697069656e74000000000000000000000000000000600082015250565b60006137f4601183612ca8565b91506137ff826137be565b602082019050919050565b60006020820190508181036000830152613823816137e7565b9050919050565b7f556e617574686f72697a6564207472616e73666572206f7065726174696f6e00600082015250565b6000613860601f83612ca8565b915061386b8261382a565b602082019050919050565b6000602082019050818103600083015261388f81613853565b9050919050565b7f4e487b7100000000000000000000000000000000000000000000000000000000600052601160045260246000fd5b60006138d082612d6c565b91506138db83612d6c565b9250828210156138ee576138ed613896565b5b828203905092915050565b600061390482612d6c565b915061390f83612d6c565b9250827fffffffffffffffffffffffffffffffffffffffffffffffffffffffffffffffff0382111561394457613943613896565b5b828201905092915050565b7f4e487b7100000000000000000000000000000000000000000000000000000000600052603260045260246000fd5b600061398982612d6c565b91507fffffffffffffffffffffffffffffffffffffffffffffffffffffffffffffffff82036139bb576139ba613896565b5b600182019050919050565b7f4e465420616c7265616479206d696e7465640000000000000000000000000000600082015250565b60006139fc601283612ca8565b9150613a07826139c6565b602082019050919050565b60006020820190508181036000830152613a2b816139ef565b9050919050565b600082825260208201905092915050565b50565b6000613a53600083613a32565b9150613a5e82613a43565b600082019050919050565b6000608082019050613a7e6000830186612e01565b613a8b6020830185612e01565b613a9860408301846131c8565b8181036060830152613aa981613a46565b9050949350505050565b60007fffffffff0000000000000000000000000000000000000000000000000000000082169050919050565b613ae881613ab3565b8114613af357600080fd5b50565b600081519050613b0581613adf565b92915050565b600060208284031215613b2157613b20612d62565b5b6000613b2f84828501613af6565b91505092915050565b7f556e7361666520726563697069656e7400000000000000000000000000000000600082015250565b6000613b6e601083612ca8565b9150613b7982613b38565b602082019050919050565b60006020820190508181036000830152613b9d81613b61565b9050919050565b7f546f6b656e20646f6573206e6f74206578697374000000000000000000000000600082015250565b6000613bda601483612ca8565b9150613be582613ba4565b602082019050919050565b60006020820190508181036000830152613c0981613bcd565b9050919050565b7f596f752063616e6e6f742062757920796f7572206f776e2070726f7065727479600082015250565b6000613c46602083612ca8565b9150613c5182613c10565b602082019050919050565b60006020820190508181036000830152613c7581613c39565b9050919050565b7f496e73756666696369656e74204554482070726f766964656400000000000000600082015250565b6000613cb2601983612ca8565b9150613cbd82613c7c565b602082019050919050565b60006020820190508181036000830152613ce181613ca5565b9050919050565b7f546f6b656e206973206e6f7420757020666f722073616c650000000000000000600082015250565b6000613d1e601883612ca8565b9150613d2982613ce8565b602082019050919050565b60006020820190508181036000830152613d4d81613d11565b9050919050565b600060a082019050613d6960008301886131c8565b613d7660208301876131c8565b613d836040830186613408565b613d906060830185613408565b613d9d60808301846131c8565b9695505050505050565b600081905092915050565b6000613dbd82612c9d565b613dc78185613da7565b9350613dd7818560208601612cb9565b80840191505092915050565b6000613def8285613db2565b9150613dfb8284613db2565b91508190509392505050565b7f496e76616c6964206f70657261746f7220616464726573730000000000000000600082015250565b6000613e3d601883612ca8565b9150613e4882613e07565b602082019050919050565b60006020820190508181036000830152613e6c81613e30565b9050919050565b7f4f70657261746f722063616e6e6f7420626520746865206f776e657200000000600082015250565b6000613ea9601c83612ca8565b9150613eb482613e73565b602082019050919050565b60006020820190508181036000830152613ed881613e9c565b9050919050565b7f4c6f636174696f6e206d757374206e6f7420626520656d707479000000000000600082015250565b6000613f15601a83612ca8565b9150613f2082613edf565b602082019050919050565b60006020820190508181036000830152613f4481613f08565b9050919050565b7f4465736372697074696f6e206d757374206e6f7420626520656d707479000000600082015250565b6000613f81601d83612ca8565b9150613f8c82613f4b565b602082019050919050565b60006020820190508181036000830152613fb081613f74565b9050919050565b7f5072696365206d757374206e6f7420626520656d707479000000000000000000600082015250565b6000613fed601783612ca8565b9150613ff882613fb7565b602082019050919050565b6000602082019050818103600083015261401c81613fe0565b9050919050565b7f496d616765206d757374206e6f7420626520656d707479000000000000000000600082015250565b6000614059601783612ca8565b915061406482614023565b602082019050919050565b600060208201905081810360008301526140888161404c565b9050919050565b6000819050919050565b60006140b46140af6140aa84612dcf565b61408f565b612dcf565b9050919050565b60006140c682614099565b9050919050565b60006140d8826140bb565b9050919050565b6140e8816140cd565b82525050565b600060e082019050614103600083018a6131c8565b81810360208301526141158189612cfd565b905081810360408301526141298188612cfd565b905061413860608301876131c8565b61414560808301866140df565b61415260a08301856131fe565b81810360c08301526141648184612cfd565b905098975050505050505050565b7f496e76616c6964206f776e657220616464726573730000000000000000000000600082015250565b60006141a8601583612ca8565b91506141b382614172565b602082019050919050565b600060208201905081810360008301526141d78161419b565b905091905056fea2646970667358221220aa2a93e598e170a034ad0dc62841e5102c85a5158ccfc5430fd483aafc52fb1e64736f6c634300080d0033",
  "immutableReferences": {},
  "source": "// SPDX-License-Identifier: MIT\npragma solidity ^0.8.13;\n\nimport './ERC721.sol';\nimport './IERC721Receiver.sol';\n\n\ncontract EstateLuxe is ERC721{\n\n  string private _name;\n  string private _symbol;\n\n  uint256 tokenIndex;\n\n  struct Realty {\n    uint256 tokenId;\n    string location;\n    string description;\n    uint256 price;\n    address payable owner;\n    bool isForSale;\n    string image;\n  }\n\n  struct RealtyTxn{\n    uint256 tokenId;\n    uint256 price;\n    address payable seller;\n    address payable buyer;\n    uint256 date;\n  }\n\n  event RealtyListed(\n    uint256 tokenId,\n    string location,\n    string description,\n    uint256 price,\n    address owner,\n    bool isForSale,\n    string image\n  );\n\n  event RealtyBought(\n    uint256 tokenId,\n    uint256 price,\n    address payable seller,\n    address payable buyer,\n    uint256 date\n  );\n\n  event RealtyResell(\n    uint256 tokenId,\n    uint256 price,\n    bool isForSale\n  );\n\n\n  Realty[] public realties;\n\n    // mapping that return the address of the owner of a specific NFT\n  mapping (uint256 => address) private _tokenOwner;\n\n  // mapping that returns the number of NFTs owned by an address\n  mapping (address => uint256) private _ownedTokensCount;\n\n  mapping(address => mapping(address => bool)) private _isApprovedForAll;\n\n  mapping(address => mapping(address => mapping(uint256 => bool))) private _isApprovedForSingle;\n\n  mapping(uint256 => address) private _tokenApproval;\n\n  mapping(uint256 => Realty) realtyProperty;\n\n  // returns a list of realty transactions that has occurred, by its token id \n  mapping(uint256 => RealtyTxn[]) realtyTxns;\n\n  mapping(uint256 => string) _tokenUri;\n\n  constructor(string memory name_, string memory symbol_){\n    _name = name_;\n    _symbol = symbol_;\n  }\n\n  // the receive function receives Ether from and EOA to the current contract balance\n  receive() external payable{}\n\n\n  function createListing(\n    string memory _location, \n    string memory _description, \n    uint256 _price,\n    string memory _image,\n    string memory _tokenCid\n    ) public {\n\n      require(bytes(_location).length > 0, \"Location must not be empty\");\n      require(bytes(_description).length > 0, \"Description must not be empty\");\n      require(_price > 0, \"Price must not be empty\");\n      require(bytes(_image).length > 0, \"Image must not be empty\");\n\n      Realty memory realty = Realty({\n        tokenId: tokenIndex,\n        location: _location,\n        description: _description,        \n        price: _price,\n        owner: payable(msg.sender),\n        isForSale: true,\n        image: _image\n      });\n      realtyProperty[tokenIndex]=realty;\n      realties.push(realty);\n      mint(msg.sender, realty.tokenId);\n      setTokenUri(realty.tokenId, _tokenCid);\n      tokenIndex ++;\n      \n      emit RealtyListed(realty.tokenId, realty.location, realty.description, realty.price, realty.owner, realty.isForSale, realty.image);\n  }\n\n\n  function buyRealty(uint256 tokenId)payable public{\n    require(_tokenOwner[tokenId] != address(0), \"Token does not exist\");\n    (uint256 _price, address _owner, bool _isForSale)  = findListing(tokenId);\n    require(msg.sender != _owner, \"You cannot buy your own property\");\n    require(msg.value >= _price, \"Insufficient ETH provided\");\n    require(_isForSale, \"Token is not up for sale\");\n\n    if(msg.value > _price){\n      payable(msg.sender).transfer(msg.value - _price);\n    }\n    payable(_tokenOwner[tokenId]).transfer(msg.value);\n\n    transferFrom(_tokenOwner[tokenId], msg.sender, tokenId);\n    realtyProperty[tokenId].owner = payable(msg.sender);\n    realtyProperty[tokenId].isForSale = false;\n    \n    RealtyTxn memory realtyTxn = RealtyTxn({\n      tokenId: tokenId,\n      price: _price,\n      seller:payable( _tokenOwner[tokenId]),\n      buyer: payable(msg.sender),\n      date: block.timestamp\n    });\n\n    // to keep track of transactions\n    realtyTxns[tokenId].push(realtyTxn);\n\n    emit RealtyBought(\n      realtyTxn.tokenId,\n      realtyTxn.price,\n      realtyTxn.seller,\n      realtyTxn.buyer,\n      realtyTxn.date\n    );\n\n  }\n\n\n  function resellRealty(uint256 _tokenId, uint256 _price)payable public{\n    require(_tokenOwner[_tokenId] != address(0), \"NFT does not exist\");\n    require(_tokenOwner[_tokenId] == msg.sender, \"Invalid token owner\");\n    require(_price > 0, \"Input realty price\");\n\n    Realty memory realty = realtyProperty[_tokenId];\n    realty.price = _price;\n    realty.isForSale = true;\n\n    emit RealtyResell(realty.tokenId,realty.price, realty.isForSale);\n  }\n\n  function getMyRealties()public view returns(uint256[] memory){\n    uint256 numberOfTokens = _ownedTokensCount[msg.sender];\n    if(numberOfTokens == 0){\n      return new uint256[](0);\n    }\n    else{\n      uint256[] memory myRealties = new uint256[](numberOfTokens);\n      uint256 myRealtyIndex = 0;\n      for (uint256 i = 0; i < realties.length; i++){\n        if( realties[i].owner == payable(msg.sender)){\n          myRealties[myRealtyIndex] = realties[i].tokenId;\n          myRealtyIndex++;\n        }\n      }\n      return myRealties;\n    }\n  }\n\n\n  function getRealtyTxns(uint256 _tokenId)public view returns(RealtyTxn[] memory){\n    require(_tokenOwner[_tokenId] != address(0), \"NFT does not exist\");\n    return realtyTxns[_tokenId];\n  }\n\n\n  function findListing(uint256 _tokenId)view public returns(\n    uint256 _price, \n    address _owner, \n    bool _isForSale\n    ){\n    Realty memory realty = realtyProperty[_tokenId];\n    _price = realty.price; \n    _owner = realty.owner; \n    _isForSale = realty.isForSale; \n    return(\n      _price, \n      _owner, \n      _isForSale\n    );\n  }\n\n\n  function name() external view returns (string memory) {\n    return _name;\n  }\n\n\n  function symbol() external view returns (string memory) {\n    return _symbol;\n  }\n  \n\n  // mint new NFT\n  function mint(address _owner, uint256 _tokenId) public {\n    // token id should belong to the zero address, meaning that initially, NFT does not exist\n    require(_tokenOwner[_tokenId] == address(0), \"NFT already minted\");\n\n    _tokenOwner[_tokenId] = _owner;\n    _ownedTokensCount[_owner] += 1;\n    emit Transfer(address(0), _owner, _tokenId);\n  }\n\n\n  function setTokenUri(uint256 _tokenId, string memory _tokenCid)public  {\n    require(_tokenOwner[_tokenId] != address(0), \"NFT does not exist\");\n    string memory baseUri = \"ipfs://\";\n    string memory tokenUri = string(abi.encodePacked(baseUri, _tokenCid));\n    _tokenUri[_tokenId] = tokenUri;\n  }\n\n\n  function getTokenUri(uint256 _tokenId) public view returns(string memory) {\n    require(_tokenOwner[_tokenId] != address(0), \"NFT does not exist\");\n    return _tokenUri[_tokenId];\n  }\n  \n\n  // check the number of NFTs owned by an address\n  function balanceOf(address _owner) external view returns (uint256 balance){\n    return _ownedTokensCount[_owner];\n  }\n\n\n  // check the owner of a specific NFT\n  function ownerOf(uint256 _tokenId) external view returns (address owner){\n    return _tokenOwner[_tokenId];\n  }\n\n\n  // approve another address(operator) to manage the NFT \n  function approve(address _to, uint256 _tokenId) external{\n    require(_tokenOwner[_tokenId] == msg.sender, \"Invalid token owner\");\n\n    _tokenApproval[_tokenId] = _to;\n    _isApprovedForSingle[msg.sender][_to][_tokenId] = true;\n    emit Approval(msg.sender, _to, _tokenId);\n  }\n\n\n  // get the approved address for a specific NFT\n  function getApproved(uint256 _tokenId) external view returns (address operator){\n    require(_tokenOwner[_tokenId] != address(0), \"NFT does not exist\");\n    return( _tokenApproval[_tokenId]  );\n  }\n\n\n  // approve of revoke the approval of an operator to handle all NFTs of the owner\n  function setApprovalForAll(address _operator, bool _approved) external{\n    require(_operator != address(0) , \"Invalid operator address\");\n    require(_operator != msg.sender, \"Operator cannot be the owner\");\n    _isApprovedForAll[msg.sender][_operator] = _approved;\n    \n    emit ApprovalForAll(msg.sender, _operator, _approved);\n  }\n\n\n  // check if an operator is approved to manage all NFTs of the owner\n  function isApprovedForAll(address _owner, address _operator) external view returns (bool){\n    require(_owner != address(0), \"Invalid owner address\");\n    require(_operator != address(0), \"Invalid operator address\");\n    return _isApprovedForAll[_owner][_operator];\n  }\n\n\n  // transfer an NFT from one address to another\n  function transferFrom(address _from, address _to, uint256 _tokenId) public{\n    require(_tokenOwner[_tokenId] != address(0), \"NFT does not exist\");\n    require(_to != address(0), \"Invalid recipient\");\n    require(msg.sender == _tokenOwner[_tokenId] || _isApprovedForSingle[_from][msg.sender][_tokenId] || _isApprovedForAll[_from][msg.sender], \"Unauthorized transfer operation\");\n\n    _tokenOwner[_tokenId] = _to;\n    _ownedTokensCount[_from] -= 1;\n    _ownedTokensCount[_to] += 1;\n\n    emit  Transfer(_from, _to, _tokenId);\n  }\n\n\n  // transfer an NFT from one address to another with safety check. designed to revert the transfer of NFTs to contracts that do not support the ERC721 interface\n  function safeTransferFrom(address _from, address _to, uint256 _tokenId) external{\n    transferFrom(_from, _to, _tokenId);\n    // a smart contract address has length of bytecode greater than zero\n    // so this checks if the _to address is an EOA, or of the recipient contract is able to handle NFTs with ERC721 interface\n    // if none of these is true, the NFT transfer is reverted.\n    require(\n      _to.code.length==0 || \n      IERC721Receiver(_to).onERC721Received(msg.sender, _from, _tokenId, \"\") == IERC721Receiver.onERC721Received.selector, \"Unsafe recipient\" \n    );\n  }\n\n}",
  "sourcePath": "/home/princeigwe/estate-luxe/contracts/elxERC721.sol",
  "compiler": {
    "name": "solc",
    "version": "0.8.13+commit.abaa5c0e.Emscripten.clang"
  },
  "schemaVersion": "3.4.16",
  "updatedAt": "2025-05-08T21:31:19.583Z",
  "networkType": "ethereum",
  "devdoc": {
    "kind": "dev",
    "methods": {},
    "version": 1
  },
  "userdoc": {
    "kind": "user",
    "methods": {},
    "version": 1
  }
}