{
  "contractName": "EstateLuxe",
  "abi": [
    {
      "inputs": [
        {
          "internalType": "string",
          "name": "name_",
          "type": "string"
        },
        {
          "internalType": "string",
          "name": "symbol_",
          "type": "string"
        }
      ],
      "stateMutability": "nonpayable",
      "type": "constructor"
    },
    {
      "anonymous": false,
      "inputs": [
        {
          "indexed": true,
          "internalType": "address",
          "name": "owner",
          "type": "address"
        },
        {
          "indexed": true,
          "internalType": "address",
          "name": "approved",
          "type": "address"
        },
        {
          "indexed": true,
          "internalType": "uint256",
          "name": "tokenId",
          "type": "uint256"
        }
      ],
      "name": "Approval",
      "type": "event"
    },
    {
      "anonymous": false,
      "inputs": [
        {
          "indexed": true,
          "internalType": "address",
          "name": "owner",
          "type": "address"
        },
        {
          "indexed": true,
          "internalType": "address",
          "name": "operator",
          "type": "address"
        },
        {
          "indexed": false,
          "internalType": "bool",
          "name": "approved",
          "type": "bool"
        }
      ],
      "name": "ApprovalForAll",
      "type": "event"
    },
    {
      "anonymous": false,
      "inputs": [
        {
          "indexed": false,
          "internalType": "uint256",
          "name": "tokenId",
          "type": "uint256"
        },
        {
          "indexed": false,
          "internalType": "uint256",
          "name": "price",
          "type": "uint256"
        },
        {
          "indexed": false,
          "internalType": "address payable",
          "name": "seller",
          "type": "address"
        },
        {
          "indexed": false,
          "internalType": "address payable",
          "name": "buyer",
          "type": "address"
        },
        {
          "indexed": false,
          "internalType": "uint256",
          "name": "date",
          "type": "uint256"
        }
      ],
      "name": "RealtyBought",
      "type": "event"
    },
    {
      "anonymous": false,
      "inputs": [
        {
          "indexed": false,
          "internalType": "uint256",
          "name": "tokenId",
          "type": "uint256"
        },
        {
          "indexed": false,
          "internalType": "string",
          "name": "location",
          "type": "string"
        },
        {
          "indexed": false,
          "internalType": "string",
          "name": "description",
          "type": "string"
        },
        {
          "indexed": false,
          "internalType": "uint256",
          "name": "price",
          "type": "uint256"
        },
        {
          "indexed": false,
          "internalType": "address",
          "name": "owner",
          "type": "address"
        },
        {
          "indexed": false,
          "internalType": "bool",
          "name": "isForSale",
          "type": "bool"
        },
        {
          "indexed": false,
          "internalType": "string",
          "name": "image",
          "type": "string"
        }
      ],
      "name": "RealtyListed",
      "type": "event"
    },
    {
      "anonymous": false,
      "inputs": [
        {
          "indexed": false,
          "internalType": "uint256",
          "name": "tokenId",
          "type": "uint256"
        },
        {
          "indexed": false,
          "internalType": "uint256",
          "name": "price",
          "type": "uint256"
        },
        {
          "indexed": false,
          "internalType": "bool",
          "name": "isForSale",
          "type": "bool"
        }
      ],
      "name": "RealtyResell",
      "type": "event"
    },
    {
      "anonymous": false,
      "inputs": [
        {
          "indexed": true,
          "internalType": "address",
          "name": "from",
          "type": "address"
        },
        {
          "indexed": true,
          "internalType": "address",
          "name": "to",
          "type": "address"
        },
        {
          "indexed": true,
          "internalType": "uint256",
          "name": "tokenId",
          "type": "uint256"
        }
      ],
      "name": "Transfer",
      "type": "event"
    },
    {
      "inputs": [
        {
          "internalType": "uint256",
          "name": "",
          "type": "uint256"
        }
      ],
      "name": "realties",
      "outputs": [
        {
          "internalType": "uint256",
          "name": "tokenId",
          "type": "uint256"
        },
        {
          "internalType": "string",
          "name": "location",
          "type": "string"
        },
        {
          "internalType": "string",
          "name": "description",
          "type": "string"
        },
        {
          "internalType": "uint256",
          "name": "price",
          "type": "uint256"
        },
        {
          "internalType": "address payable",
          "name": "owner",
          "type": "address"
        },
        {
          "internalType": "bool",
          "name": "isForSale",
          "type": "bool"
        },
        {
          "internalType": "string",
          "name": "image",
          "type": "string"
        }
      ],
      "stateMutability": "view",
      "type": "function",
      "constant": true
    },
    {
      "stateMutability": "payable",
      "type": "receive",
      "payable": true
    },
    {
      "inputs": [
        {
          "internalType": "string",
          "name": "_location",
          "type": "string"
        },
        {
          "internalType": "string",
          "name": "_description",
          "type": "string"
        },
        {
          "internalType": "uint256",
          "name": "_price",
          "type": "uint256"
        },
        {
          "internalType": "string",
          "name": "_image",
          "type": "string"
        }
      ],
      "name": "createListing",
      "outputs": [],
      "stateMutability": "nonpayable",
      "type": "function"
    },
    {
      "inputs": [
        {
          "internalType": "uint256",
          "name": "tokenId",
          "type": "uint256"
        }
      ],
      "name": "buyRealty",
      "outputs": [],
      "stateMutability": "payable",
      "type": "function",
      "payable": true
    },
    {
      "inputs": [
        {
          "internalType": "uint256",
          "name": "_tokenId",
          "type": "uint256"
        },
        {
          "internalType": "uint256",
          "name": "_price",
          "type": "uint256"
        }
      ],
      "name": "resellRealty",
      "outputs": [],
      "stateMutability": "payable",
      "type": "function",
      "payable": true
    },
    {
      "inputs": [],
      "name": "getMyRealties",
      "outputs": [
        {
          "internalType": "uint256[]",
          "name": "",
          "type": "uint256[]"
        }
      ],
      "stateMutability": "view",
      "type": "function",
      "constant": true
    },
    {
      "inputs": [
        {
          "internalType": "uint256",
          "name": "_tokenId",
          "type": "uint256"
        }
      ],
      "name": "getRealtyTxns",
      "outputs": [
        {
          "components": [
            {
              "internalType": "uint256",
              "name": "tokenId",
              "type": "uint256"
            },
            {
              "internalType": "uint256",
              "name": "price",
              "type": "uint256"
            },
            {
              "internalType": "address payable",
              "name": "seller",
              "type": "address"
            },
            {
              "internalType": "address payable",
              "name": "buyer",
              "type": "address"
            },
            {
              "internalType": "uint256",
              "name": "date",
              "type": "uint256"
            }
          ],
          "internalType": "struct EstateLuxe.RealtyTxn[]",
          "name": "",
          "type": "tuple[]"
        }
      ],
      "stateMutability": "view",
      "type": "function",
      "constant": true
    },
    {
      "inputs": [
        {
          "internalType": "uint256",
          "name": "_tokenId",
          "type": "uint256"
        }
      ],
      "name": "findListing",
      "outputs": [
        {
          "internalType": "uint256",
          "name": "_price",
          "type": "uint256"
        },
        {
          "internalType": "address",
          "name": "_owner",
          "type": "address"
        },
        {
          "internalType": "bool",
          "name": "_isForSale",
          "type": "bool"
        }
      ],
      "stateMutability": "view",
      "type": "function",
      "constant": true
    },
    {
      "inputs": [],
      "name": "name",
      "outputs": [
        {
          "internalType": "string",
          "name": "",
          "type": "string"
        }
      ],
      "stateMutability": "view",
      "type": "function",
      "constant": true
    },
    {
      "inputs": [],
      "name": "symbol",
      "outputs": [
        {
          "internalType": "string",
          "name": "",
          "type": "string"
        }
      ],
      "stateMutability": "view",
      "type": "function",
      "constant": true
    },
    {
      "inputs": [
        {
          "internalType": "address",
          "name": "_owner",
          "type": "address"
        },
        {
          "internalType": "uint256",
          "name": "_tokenId",
          "type": "uint256"
        }
      ],
      "name": "mint",
      "outputs": [],
      "stateMutability": "nonpayable",
      "type": "function"
    },
    {
      "inputs": [
        {
          "internalType": "address",
          "name": "_owner",
          "type": "address"
        }
      ],
      "name": "balanceOf",
      "outputs": [
        {
          "internalType": "uint256",
          "name": "balance",
          "type": "uint256"
        }
      ],
      "stateMutability": "view",
      "type": "function",
      "constant": true
    },
    {
      "inputs": [
        {
          "internalType": "uint256",
          "name": "_tokenId",
          "type": "uint256"
        }
      ],
      "name": "ownerOf",
      "outputs": [
        {
          "internalType": "address",
          "name": "owner",
          "type": "address"
        }
      ],
      "stateMutability": "view",
      "type": "function",
      "constant": true
    },
    {
      "inputs": [
        {
          "internalType": "address",
          "name": "_to",
          "type": "address"
        },
        {
          "internalType": "uint256",
          "name": "_tokenId",
          "type": "uint256"
        }
      ],
      "name": "approve",
      "outputs": [],
      "stateMutability": "nonpayable",
      "type": "function"
    },
    {
      "inputs": [
        {
          "internalType": "uint256",
          "name": "_tokenId",
          "type": "uint256"
        }
      ],
      "name": "getApproved",
      "outputs": [
        {
          "internalType": "address",
          "name": "operator",
          "type": "address"
        }
      ],
      "stateMutability": "view",
      "type": "function",
      "constant": true
    },
    {
      "inputs": [
        {
          "internalType": "address",
          "name": "_operator",
          "type": "address"
        },
        {
          "internalType": "bool",
          "name": "_approved",
          "type": "bool"
        }
      ],
      "name": "setApprovalForAll",
      "outputs": [],
      "stateMutability": "nonpayable",
      "type": "function"
    },
    {
      "inputs": [
        {
          "internalType": "address",
          "name": "_owner",
          "type": "address"
        },
        {
          "internalType": "address",
          "name": "_operator",
          "type": "address"
        }
      ],
      "name": "isApprovedForAll",
      "outputs": [
        {
          "internalType": "bool",
          "name": "",
          "type": "bool"
        }
      ],
      "stateMutability": "view",
      "type": "function",
      "constant": true
    },
    {
      "inputs": [
        {
          "internalType": "address",
          "name": "_from",
          "type": "address"
        },
        {
          "internalType": "address",
          "name": "_to",
          "type": "address"
        },
        {
          "internalType": "uint256",
          "name": "_tokenId",
          "type": "uint256"
        }
      ],
      "name": "transferFrom",
      "outputs": [],
      "stateMutability": "nonpayable",
      "type": "function"
    },
    {
      "inputs": [
        {
          "internalType": "address",
          "name": "_from",
          "type": "address"
        },
        {
          "internalType": "address",
          "name": "_to",
          "type": "address"
        },
        {
          "internalType": "uint256",
          "name": "_tokenId",
          "type": "uint256"
        }
      ],
      "name": "safeTransferFrom",
      "outputs": [],
      "stateMutability": "nonpayable",
      "type": "function"
    }
  ],
  "bytecode": "0x60806040523480156200001157600080fd5b50604051620041dd380380620041dd8339818101604052810190620000379190620002be565b81600090805190602001906200004f92919062000071565b5080600190805190602001906200006892919062000071565b505050620003a7565b8280546200007f9062000372565b90600052602060002090601f016020900481019282620000a35760008555620000ef565b82601f10620000be57805160ff1916838001178555620000ef565b82800160010185558215620000ef579182015b82811115620000ee578251825591602001919060010190620000d1565b5b509050620000fe919062000102565b5090565b5b808211156200011d57600081600090555060010162000103565b5090565b6000604051905090565b600080fd5b600080fd5b600080fd5b600080fd5b6000601f19601f8301169050919050565b7f4e487b7100000000000000000000000000000000000000000000000000000000600052604160045260246000fd5b6200018a826200013f565b810181811067ffffffffffffffff82111715620001ac57620001ab62000150565b5b80604052505050565b6000620001c162000121565b9050620001cf82826200017f565b919050565b600067ffffffffffffffff821115620001f257620001f162000150565b5b620001fd826200013f565b9050602081019050919050565b60005b838110156200022a5780820151818401526020810190506200020d565b838111156200023a576000848401525b50505050565b6000620002576200025184620001d4565b620001b5565b9050828152602081018484840111156200027657620002756200013a565b5b620002838482856200020a565b509392505050565b600082601f830112620002a357620002a262000135565b5b8151620002b584826020860162000240565b91505092915050565b60008060408385031215620002d857620002d76200012b565b5b600083015167ffffffffffffffff811115620002f957620002f862000130565b5b62000307858286016200028b565b925050602083015167ffffffffffffffff8111156200032b576200032a62000130565b5b62000339858286016200028b565b9150509250929050565b7f4e487b7100000000000000000000000000000000000000000000000000000000600052602260045260246000fd5b600060028204905060018216806200038b57607f821691505b602082108103620003a157620003a062000343565b5b50919050565b613e2680620003b76000396000f3fe60806040526004361061010d5760003560e01c80636352211e116100955780639aefcb0d116100645780639aefcb0d14610356578063a22cb46514610395578063e985e9c5146103be578063eaca6c53146103fb578063eea744431461043e57610114565b80636352211e1461028857806370a08231146102c5578063744409c61461030257806395d89b411461032b57610114565b806323b872dd116100dc57806323b872dd146101c65780632ca584e8146101ef57806340c10f191461021a57806342842e0e14610243578063475c477d1461026c57610114565b806306fdde0314610119578063081812fc14610144578063095ea7b314610181578063174e4fd1146101aa57610114565b3661011457005b600080fd5b34801561012557600080fd5b5061012e61047b565b60405161013b9190612a34565b60405180910390f35b34801561015057600080fd5b5061016b60048036038101906101669190612aa0565b61050d565b6040516101789190612b0e565b60405180910390f35b34801561018d57600080fd5b506101a860048036038101906101a39190612b55565b6105eb565b005b6101c460048036038101906101bf9190612b95565b6107e3565b005b3480156101d257600080fd5b506101ed60048036038101906101e89190612bd5565b610c2d565b005b3480156101fb57600080fd5b50610204611072565b6040516102119190612ce6565b60405180910390f35b34801561022657600080fd5b50610241600480360381019061023c9190612b55565b61125a565b005b34801561024f57600080fd5b5061026a60048036038101906102659190612bd5565b611405565b005b61028660048036038101906102819190612aa0565b61153d565b005b34801561029457600080fd5b506102af60048036038101906102aa9190612aa0565b611a4a565b6040516102bc9190612b0e565b60405180910390f35b3480156102d157600080fd5b506102ec60048036038101906102e79190612d08565b611a87565b6040516102f99190612d44565b60405180910390f35b34801561030e57600080fd5b5061032960048036038101906103249190612e94565b611ad0565b005b34801561033757600080fd5b50610340611ea8565b60405161034d9190612a34565b60405180910390f35b34801561036257600080fd5b5061037d60048036038101906103789190612aa0565b611f3a565b60405161038c93929190612f6a565b60405180910390f35b3480156103a157600080fd5b506103bc60048036038101906103b79190612fcd565b6121b8565b005b3480156103ca57600080fd5b506103e560048036038101906103e0919061300d565b612392565b6040516103f2919061304d565b60405180910390f35b34801561040757600080fd5b50610422600480360381019061041d9190612aa0565b612503565b6040516104359796959493929190613089565b60405180910390f35b34801561044a57600080fd5b5061046560048036038101906104609190612aa0565b61271a565b6040516104729190613233565b60405180910390f35b60606000805461048a90613284565b80601f01602080910402602001604051908101604052809291908181526020018280546104b690613284565b80156105035780601f106104d857610100808354040283529160200191610503565b820191906000526020600020905b8154815290600101906020018083116104e657829003601f168201915b5050505050905090565b60008073ffffffffffffffffffffffffffffffffffffffff166004600084815260200190815260200160002060009054906101000a900473ffffffffffffffffffffffffffffffffffffffff1673ffffffffffffffffffffffffffffffffffffffff16036105b0576040517f08c379a00000000000000000000000000000000000000000000000000000000081526004016105a790613301565b60405180910390fd5b6008600083815260200190815260200160002060009054906101000a900473ffffffffffffffffffffffffffffffffffffffff169050919050565b3373ffffffffffffffffffffffffffffffffffffffff166004600083815260200190815260200160002060009054906101000a900473ffffffffffffffffffffffffffffffffffffffff1673ffffffffffffffffffffffffffffffffffffffff161461068c576040517f08c379a00000000000000000000000000000000000000000000000000000000081526004016106839061336d565b60405180910390fd5b816008600083815260200190815260200160002060006101000a81548173ffffffffffffffffffffffffffffffffffffffff021916908373ffffffffffffffffffffffffffffffffffffffff1602179055506001600760003373ffffffffffffffffffffffffffffffffffffffff1673ffffffffffffffffffffffffffffffffffffffff16815260200190815260200160002060008473ffffffffffffffffffffffffffffffffffffffff1673ffffffffffffffffffffffffffffffffffffffff168152602001908152602001600020600083815260200190815260200160002060006101000a81548160ff021916908315150217905550808273ffffffffffffffffffffffffffffffffffffffff163373ffffffffffffffffffffffffffffffffffffffff167f8c5be1e5ebec7d5bd14f71427d1e84f3dd0314c0f7b2291e5b200ac8c7c3b92560405160405180910390a45050565b600073ffffffffffffffffffffffffffffffffffffffff166004600084815260200190815260200160002060009054906101000a900473ffffffffffffffffffffffffffffffffffffffff1673ffffffffffffffffffffffffffffffffffffffff1603610885576040517f08c379a000000000000000000000000000000000000000000000000000000000815260040161087c90613301565b60405180910390fd5b3373ffffffffffffffffffffffffffffffffffffffff166004600084815260200190815260200160002060009054906101000a900473ffffffffffffffffffffffffffffffffffffffff1673ffffffffffffffffffffffffffffffffffffffff1614610926576040517f08c379a000000000000000000000000000000000000000000000000000000000815260040161091d9061336d565b60405180910390fd5b60008111610969576040517f08c379a0000000000000000000000000000000000000000000000000000000008152600401610960906133d9565b60405180910390fd5b6000600960008481526020019081526020016000206040518060e0016040529081600082015481526020016001820180546109a390613284565b80601f01602080910402602001604051908101604052809291908181526020018280546109cf90613284565b8015610a1c5780601f106109f157610100808354040283529160200191610a1c565b820191906000526020600020905b8154815290600101906020018083116109ff57829003601f168201915b50505050508152602001600282018054610a3590613284565b80601f0160208091040260200160405190810160405280929190818152602001828054610a6190613284565b8015610aae5780601f10610a8357610100808354040283529160200191610aae565b820191906000526020600020905b815481529060010190602001808311610a9157829003601f168201915b50505050508152602001600382015481526020016004820160009054906101000a900473ffffffffffffffffffffffffffffffffffffffff1673ffffffffffffffffffffffffffffffffffffffff1673ffffffffffffffffffffffffffffffffffffffff1681526020016004820160149054906101000a900460ff16151515158152602001600582018054610b4290613284565b80601f0160208091040260200160405190810160405280929190818152602001828054610b6e90613284565b8015610bbb5780601f10610b9057610100808354040283529160200191610bbb565b820191906000526020600020905b815481529060010190602001808311610b9e57829003601f168201915b50505050508152505090508181606001818152505060018160a00190151590811515815250507ffbc096da65d667d456e87182b24ab28c469855240d3fd53d9685b2a6954542c0816000015182606001518360a00151604051610c20939291906133f9565b60405180910390a1505050565b600073ffffffffffffffffffffffffffffffffffffffff166004600083815260200190815260200160002060009054906101000a900473ffffffffffffffffffffffffffffffffffffffff1673ffffffffffffffffffffffffffffffffffffffff1603610ccf576040517f08c379a0000000000000000000000000000000000000000000000000000000008152600401610cc690613301565b60405180910390fd5b600073ffffffffffffffffffffffffffffffffffffffff168273ffffffffffffffffffffffffffffffffffffffff1603610d3e576040517f08c379a0000000000000000000000000000000000000000000000000000000008152600401610d359061347c565b60405180910390fd5b6004600082815260200190815260200160002060009054906101000a900473ffffffffffffffffffffffffffffffffffffffff1673ffffffffffffffffffffffffffffffffffffffff163373ffffffffffffffffffffffffffffffffffffffff161480610e425750600760008473ffffffffffffffffffffffffffffffffffffffff1673ffffffffffffffffffffffffffffffffffffffff16815260200190815260200160002060003373ffffffffffffffffffffffffffffffffffffffff1673ffffffffffffffffffffffffffffffffffffffff168152602001908152602001600020600082815260200190815260200160002060009054906101000a900460ff165b80610ed35750600660008473ffffffffffffffffffffffffffffffffffffffff1673ffffffffffffffffffffffffffffffffffffffff16815260200190815260200160002060003373ffffffffffffffffffffffffffffffffffffffff1673ffffffffffffffffffffffffffffffffffffffff16815260200190815260200160002060009054906101000a900460ff165b610f12576040517f08c379a0000000000000000000000000000000000000000000000000000000008152600401610f09906134e8565b60405180910390fd5b816004600083815260200190815260200160002060006101000a81548173ffffffffffffffffffffffffffffffffffffffff021916908373ffffffffffffffffffffffffffffffffffffffff1602179055506001600560008573ffffffffffffffffffffffffffffffffffffffff1673ffffffffffffffffffffffffffffffffffffffff1681526020019081526020016000206000828254610fb49190613537565b925050819055506001600560008473ffffffffffffffffffffffffffffffffffffffff1673ffffffffffffffffffffffffffffffffffffffff168152602001908152602001600020600082825461100b919061356b565b92505081905550808273ffffffffffffffffffffffffffffffffffffffff168473ffffffffffffffffffffffffffffffffffffffff167fddf252ad1be2c89b69c2b068fc378daa952ba7f163c4a11628f55a4df523b3ef60405160405180910390a4505050565b60606000600560003373ffffffffffffffffffffffffffffffffffffffff1673ffffffffffffffffffffffffffffffffffffffff1681526020019081526020016000205490506000810361111257600067ffffffffffffffff8111156110db576110da612d69565b5b6040519080825280602002602001820160405280156111095781602001602082028036833780820191505090505b50915050611257565b60008167ffffffffffffffff81111561112e5761112d612d69565b5b60405190808252806020026020018201604052801561115c5781602001602082028036833780820191505090505b5090506000805b60038054905081101561124f573373ffffffffffffffffffffffffffffffffffffffff166003828154811061119b5761119a6135c1565b5b906000526020600020906006020160040160009054906101000a900473ffffffffffffffffffffffffffffffffffffffff1673ffffffffffffffffffffffffffffffffffffffff160361123c57600381815481106111fc576111fb6135c1565b5b906000526020600020906006020160000154838381518110611221576112206135c1565b5b6020026020010181815250508180611238906135f0565b9250505b8080611247906135f0565b915050611163565b508193505050505b90565b600073ffffffffffffffffffffffffffffffffffffffff166004600083815260200190815260200160002060009054906101000a900473ffffffffffffffffffffffffffffffffffffffff1673ffffffffffffffffffffffffffffffffffffffff16146112fc576040517f08c379a00000000000000000000000000000000000000000000000000000000081526004016112f390613684565b60405180910390fd5b816004600083815260200190815260200160002060006101000a81548173ffffffffffffffffffffffffffffffffffffffff021916908373ffffffffffffffffffffffffffffffffffffffff1602179055506001600560008473ffffffffffffffffffffffffffffffffffffffff1673ffffffffffffffffffffffffffffffffffffffff168152602001908152602001600020600082825461139e919061356b565b92505081905550808273ffffffffffffffffffffffffffffffffffffffff16600073ffffffffffffffffffffffffffffffffffffffff167fddf252ad1be2c89b69c2b068fc378daa952ba7f163c4a11628f55a4df523b3ef60405160405180910390a45050565b611410838383610c2d565b60008273ffffffffffffffffffffffffffffffffffffffff163b14806114f9575063150b7a0260e01b7bffffffffffffffffffffffffffffffffffffffffffffffffffffffff19168273ffffffffffffffffffffffffffffffffffffffff1663150b7a023386856040518463ffffffff1660e01b8152600401611495939291906136db565b6020604051808303816000875af11580156114b4573d6000803e3d6000fd5b505050506040513d601f19601f820116820180604052508101906114d8919061377d565b7bffffffffffffffffffffffffffffffffffffffffffffffffffffffff1916145b611538576040517f08c379a000000000000000000000000000000000000000000000000000000000815260040161152f906137f6565b60405180910390fd5b505050565b600073ffffffffffffffffffffffffffffffffffffffff166004600083815260200190815260200160002060009054906101000a900473ffffffffffffffffffffffffffffffffffffffff1673ffffffffffffffffffffffffffffffffffffffff16036115df576040517f08c379a00000000000000000000000000000000000000000000000000000000081526004016115d690613862565b60405180910390fd5b60008060006115ed84611f3a565b9250925092508173ffffffffffffffffffffffffffffffffffffffff163373ffffffffffffffffffffffffffffffffffffffff1603611661576040517f08c379a0000000000000000000000000000000000000000000000000000000008152600401611658906138ce565b60405180910390fd5b823410156116a4576040517f08c379a000000000000000000000000000000000000000000000000000000000815260040161169b9061393a565b60405180910390fd5b806116e4576040517f08c379a00000000000000000000000000000000000000000000000000000000081526004016116db906139a6565b60405180910390fd5b8234111561173f573373ffffffffffffffffffffffffffffffffffffffff166108fc84346117129190613537565b9081150290604051600060405180830381858888f1935050505015801561173d573d6000803e3d6000fd5b505b6004600085815260200190815260200160002060009054906101000a900473ffffffffffffffffffffffffffffffffffffffff1673ffffffffffffffffffffffffffffffffffffffff166108fc349081150290604051600060405180830381858888f193505050501580156117b8573d6000803e3d6000fd5b506117f76004600086815260200190815260200160002060009054906101000a900473ffffffffffffffffffffffffffffffffffffffff163386610c2d565b336009600086815260200190815260200160002060040160006101000a81548173ffffffffffffffffffffffffffffffffffffffff021916908373ffffffffffffffffffffffffffffffffffffffff16021790555060006009600086815260200190815260200160002060040160146101000a81548160ff02191690831515021790555060006040518060a001604052808681526020018581526020016004600088815260200190815260200160002060009054906101000a900473ffffffffffffffffffffffffffffffffffffffff1673ffffffffffffffffffffffffffffffffffffffff1681526020013373ffffffffffffffffffffffffffffffffffffffff168152602001428152509050600a6000868152602001908152602001600020819080600181540180825580915050600190039060005260206000209060050201600090919091909150600082015181600001556020820151816001015560408201518160020160006101000a81548173ffffffffffffffffffffffffffffffffffffffff021916908373ffffffffffffffffffffffffffffffffffffffff16021790555060608201518160030160006101000a81548173ffffffffffffffffffffffffffffffffffffffff021916908373ffffffffffffffffffffffffffffffffffffffff1602179055506080820151816004015550507f574de17373d77e73e9ae0156fa7b29453037eb4a023085cd36a922a3c109295f81600001518260200151836040015184606001518560800151604051611a3b9594939291906139c6565b60405180910390a15050505050565b60006004600083815260200190815260200160002060009054906101000a900473ffffffffffffffffffffffffffffffffffffffff169050919050565b6000600560008373ffffffffffffffffffffffffffffffffffffffff1673ffffffffffffffffffffffffffffffffffffffff168152602001908152602001600020549050919050565b6000845111611b14576040517f08c379a0000000000000000000000000000000000000000000000000000000008152600401611b0b90613a65565b60405180910390fd5b6000835111611b58576040517f08c379a0000000000000000000000000000000000000000000000000000000008152600401611b4f90613ad1565b60405180910390fd5b60008211611b9b576040517f08c379a0000000000000000000000000000000000000000000000000000000008152600401611b9290613b3d565b60405180910390fd5b6000815111611bdf576040517f08c379a0000000000000000000000000000000000000000000000000000000008152600401611bd690613ba9565b60405180910390fd5b60006040518060e0016040528060025481526020018681526020018581526020018481526020013373ffffffffffffffffffffffffffffffffffffffff16815260200160011515815260200183815250905080600960006002548152602001908152602001600020600082015181600001556020820151816001019080519060200190611c6d9291906128f8565b506040820151816002019080519060200190611c8a9291906128f8565b506060820151816003015560808201518160040160006101000a81548173ffffffffffffffffffffffffffffffffffffffff021916908373ffffffffffffffffffffffffffffffffffffffff16021790555060a08201518160040160146101000a81548160ff02191690831515021790555060c0820151816005019080519060200190611d189291906128f8565b509050506003819080600181540180825580915050600190039060005260206000209060060201600090919091909150600082015181600001556020820151816001019080519060200190611d6e9291906128f8565b506040820151816002019080519060200190611d8b9291906128f8565b506060820151816003015560808201518160040160006101000a81548173ffffffffffffffffffffffffffffffffffffffff021916908373ffffffffffffffffffffffffffffffffffffffff16021790555060a08201518160040160146101000a81548160ff02191690831515021790555060c0820151816005019080519060200190611e199291906128f8565b505050611e2a33826000015161125a565b60026000815480929190611e3d906135f0565b91905055507fc6031684618fe9e70fe454a982b61ce91abed316bc6ff57faa7a40b6f9103798816000015182602001518360400151846060015185608001518660a001518760c00151604051611e999796959493929190613c28565b60405180910390a15050505050565b606060018054611eb790613284565b80601f0160208091040260200160405190810160405280929190818152602001828054611ee390613284565b8015611f305780601f10611f0557610100808354040283529160200191611f30565b820191906000526020600020905b815481529060010190602001808311611f1357829003601f168201915b5050505050905090565b600080600080600960008681526020019081526020016000206040518060e001604052908160008201548152602001600182018054611f7890613284565b80601f0160208091040260200160405190810160405280929190818152602001828054611fa490613284565b8015611ff15780601f10611fc657610100808354040283529160200191611ff1565b820191906000526020600020905b815481529060010190602001808311611fd457829003601f168201915b5050505050815260200160028201805461200a90613284565b80601f016020809104026020016040519081016040528092919081815260200182805461203690613284565b80156120835780601f1061205857610100808354040283529160200191612083565b820191906000526020600020905b81548152906001019060200180831161206657829003601f168201915b50505050508152602001600382015481526020016004820160009054906101000a900473ffffffffffffffffffffffffffffffffffffffff1673ffffffffffffffffffffffffffffffffffffffff1673ffffffffffffffffffffffffffffffffffffffff1681526020016004820160149054906101000a900460ff1615151515815260200160058201805461211790613284565b80601f016020809104026020016040519081016040528092919081815260200182805461214390613284565b80156121905780601f1061216557610100808354040283529160200191612190565b820191906000526020600020905b81548152906001019060200180831161217357829003601f168201915b505050505081525050905080606001519350806080015192508060a001519150509193909250565b600073ffffffffffffffffffffffffffffffffffffffff168273ffffffffffffffffffffffffffffffffffffffff1603612227576040517f08c379a000000000000000000000000000000000000000000000000000000000815260040161221e90613cf8565b60405180910390fd5b3373ffffffffffffffffffffffffffffffffffffffff168273ffffffffffffffffffffffffffffffffffffffff1603612295576040517f08c379a000000000000000000000000000000000000000000000000000000000815260040161228c90613d64565b60405180910390fd5b80600660003373ffffffffffffffffffffffffffffffffffffffff1673ffffffffffffffffffffffffffffffffffffffff16815260200190815260200160002060008473ffffffffffffffffffffffffffffffffffffffff1673ffffffffffffffffffffffffffffffffffffffff16815260200190815260200160002060006101000a81548160ff0219169083151502179055508173ffffffffffffffffffffffffffffffffffffffff163373ffffffffffffffffffffffffffffffffffffffff167f17307eab39ab6107e8899845ad3d59bd9653f200f220920489ca2b5937696c3183604051612386919061304d565b60405180910390a35050565b60008073ffffffffffffffffffffffffffffffffffffffff168373ffffffffffffffffffffffffffffffffffffffff1603612402576040517f08c379a00000000000000000000000000000000000000000000000000000000081526004016123f990613dd0565b60405180910390fd5b600073ffffffffffffffffffffffffffffffffffffffff168273ffffffffffffffffffffffffffffffffffffffff1603612471576040517f08c379a000000000000000000000000000000000000000000000000000000000815260040161246890613cf8565b60405180910390fd5b600660008473ffffffffffffffffffffffffffffffffffffffff1673ffffffffffffffffffffffffffffffffffffffff16815260200190815260200160002060008373ffffffffffffffffffffffffffffffffffffffff1673ffffffffffffffffffffffffffffffffffffffff16815260200190815260200160002060009054906101000a900460ff16905092915050565b6003818154811061251357600080fd5b906000526020600020906006020160009150905080600001549080600101805461253c90613284565b80601f016020809104026020016040519081016040528092919081815260200182805461256890613284565b80156125b55780601f1061258a576101008083540402835291602001916125b5565b820191906000526020600020905b81548152906001019060200180831161259857829003601f168201915b5050505050908060020180546125ca90613284565b80601f01602080910402602001604051908101604052809291908181526020018280546125f690613284565b80156126435780601f1061261857610100808354040283529160200191612643565b820191906000526020600020905b81548152906001019060200180831161262657829003601f168201915b5050505050908060030154908060040160009054906101000a900473ffffffffffffffffffffffffffffffffffffffff16908060040160149054906101000a900460ff169080600501805461269790613284565b80601f01602080910402602001604051908101604052809291908181526020018280546126c390613284565b80156127105780601f106126e557610100808354040283529160200191612710565b820191906000526020600020905b8154815290600101906020018083116126f357829003601f168201915b5050505050905087565b6060600073ffffffffffffffffffffffffffffffffffffffff166004600084815260200190815260200160002060009054906101000a900473ffffffffffffffffffffffffffffffffffffffff1673ffffffffffffffffffffffffffffffffffffffff16036127be576040517f08c379a00000000000000000000000000000000000000000000000000000000081526004016127b590613301565b60405180910390fd5b600a6000838152602001908152602001600020805480602002602001604051908101604052809291908181526020016000905b828210156128ed57838290600052602060002090600502016040518060a001604052908160008201548152602001600182015481526020016002820160009054906101000a900473ffffffffffffffffffffffffffffffffffffffff1673ffffffffffffffffffffffffffffffffffffffff1673ffffffffffffffffffffffffffffffffffffffff1681526020016003820160009054906101000a900473ffffffffffffffffffffffffffffffffffffffff1673ffffffffffffffffffffffffffffffffffffffff1673ffffffffffffffffffffffffffffffffffffffff168152602001600482015481525050815260200190600101906127f1565b505050509050919050565b82805461290490613284565b90600052602060002090601f016020900481019282612926576000855561296d565b82601f1061293f57805160ff191683800117855561296d565b8280016001018555821561296d579182015b8281111561296c578251825591602001919060010190612951565b5b50905061297a919061297e565b5090565b5b8082111561299757600081600090555060010161297f565b5090565b600081519050919050565b600082825260208201905092915050565b60005b838110156129d55780820151818401526020810190506129ba565b838111156129e4576000848401525b50505050565b6000601f19601f8301169050919050565b6000612a068261299b565b612a1081856129a6565b9350612a208185602086016129b7565b612a29816129ea565b840191505092915050565b60006020820190508181036000830152612a4e81846129fb565b905092915050565b6000604051905090565b600080fd5b600080fd5b6000819050919050565b612a7d81612a6a565b8114612a8857600080fd5b50565b600081359050612a9a81612a74565b92915050565b600060208284031215612ab657612ab5612a60565b5b6000612ac484828501612a8b565b91505092915050565b600073ffffffffffffffffffffffffffffffffffffffff82169050919050565b6000612af882612acd565b9050919050565b612b0881612aed565b82525050565b6000602082019050612b236000830184612aff565b92915050565b612b3281612aed565b8114612b3d57600080fd5b50565b600081359050612b4f81612b29565b92915050565b60008060408385031215612b6c57612b6b612a60565b5b6000612b7a85828601612b40565b9250506020612b8b85828601612a8b565b9150509250929050565b60008060408385031215612bac57612bab612a60565b5b6000612bba85828601612a8b565b9250506020612bcb85828601612a8b565b9150509250929050565b600080600060608486031215612bee57612bed612a60565b5b6000612bfc86828701612b40565b9350506020612c0d86828701612b40565b9250506040612c1e86828701612a8b565b9150509250925092565b600081519050919050565b600082825260208201905092915050565b6000819050602082019050919050565b612c5d81612a6a565b82525050565b6000612c6f8383612c54565b60208301905092915050565b6000602082019050919050565b6000612c9382612c28565b612c9d8185612c33565b9350612ca883612c44565b8060005b83811015612cd9578151612cc08882612c63565b9750612ccb83612c7b565b925050600181019050612cac565b5085935050505092915050565b60006020820190508181036000830152612d008184612c88565b905092915050565b600060208284031215612d1e57612d1d612a60565b5b6000612d2c84828501612b40565b91505092915050565b612d3e81612a6a565b82525050565b6000602082019050612d596000830184612d35565b92915050565b600080fd5b600080fd5b7f4e487b7100000000000000000000000000000000000000000000000000000000600052604160045260246000fd5b612da1826129ea565b810181811067ffffffffffffffff82111715612dc057612dbf612d69565b5b80604052505050565b6000612dd3612a56565b9050612ddf8282612d98565b919050565b600067ffffffffffffffff821115612dff57612dfe612d69565b5b612e08826129ea565b9050602081019050919050565b82818337600083830152505050565b6000612e37612e3284612de4565b612dc9565b905082815260208101848484011115612e5357612e52612d64565b5b612e5e848285612e15565b509392505050565b600082601f830112612e7b57612e7a612d5f565b5b8135612e8b848260208601612e24565b91505092915050565b60008060008060808587031215612eae57612ead612a60565b5b600085013567ffffffffffffffff811115612ecc57612ecb612a65565b5b612ed887828801612e66565b945050602085013567ffffffffffffffff811115612ef957612ef8612a65565b5b612f0587828801612e66565b9350506040612f1687828801612a8b565b925050606085013567ffffffffffffffff811115612f3757612f36612a65565b5b612f4387828801612e66565b91505092959194509250565b60008115159050919050565b612f6481612f4f565b82525050565b6000606082019050612f7f6000830186612d35565b612f8c6020830185612aff565b612f996040830184612f5b565b949350505050565b612faa81612f4f565b8114612fb557600080fd5b50565b600081359050612fc781612fa1565b92915050565b60008060408385031215612fe457612fe3612a60565b5b6000612ff285828601612b40565b925050602061300385828601612fb8565b9150509250929050565b6000806040838503121561302457613023612a60565b5b600061303285828601612b40565b925050602061304385828601612b40565b9150509250929050565b60006020820190506130626000830184612f5b565b92915050565b600061307382612acd565b9050919050565b61308381613068565b82525050565b600060e08201905061309e600083018a612d35565b81810360208301526130b081896129fb565b905081810360408301526130c481886129fb565b90506130d36060830187612d35565b6130e0608083018661307a565b6130ed60a0830185612f5b565b81810360c08301526130ff81846129fb565b905098975050505050505050565b600081519050919050565b600082825260208201905092915050565b6000819050602082019050919050565b61314281613068565b82525050565b60a08201600082015161315e6000850182612c54565b5060208201516131716020850182612c54565b5060408201516131846040850182613139565b5060608201516131976060850182613139565b5060808201516131aa6080850182612c54565b50505050565b60006131bc8383613148565b60a08301905092915050565b6000602082019050919050565b60006131e08261310d565b6131ea8185613118565b93506131f583613129565b8060005b8381101561322657815161320d88826131b0565b9750613218836131c8565b9250506001810190506131f9565b5085935050505092915050565b6000602082019050818103600083015261324d81846131d5565b905092915050565b7f4e487b7100000000000000000000000000000000000000000000000000000000600052602260045260246000fd5b6000600282049050600182168061329c57607f821691505b6020821081036132af576132ae613255565b5b50919050565b7f4e465420646f6573206e6f742065786973740000000000000000000000000000600082015250565b60006132eb6012836129a6565b91506132f6826132b5565b602082019050919050565b6000602082019050818103600083015261331a816132de565b9050919050565b7f496e76616c696420746f6b656e206f776e657200000000000000000000000000600082015250565b60006133576013836129a6565b915061336282613321565b602082019050919050565b600060208201905081810360008301526133868161334a565b9050919050565b7f496e707574207265616c74792070726963650000000000000000000000000000600082015250565b60006133c36012836129a6565b91506133ce8261338d565b602082019050919050565b600060208201905081810360008301526133f2816133b6565b9050919050565b600060608201905061340e6000830186612d35565b61341b6020830185612d35565b6134286040830184612f5b565b949350505050565b7f496e76616c696420726563697069656e74000000000000000000000000000000600082015250565b60006134666011836129a6565b915061347182613430565b602082019050919050565b6000602082019050818103600083015261349581613459565b9050919050565b7f556e617574686f72697a6564207472616e73666572206f7065726174696f6e00600082015250565b60006134d2601f836129a6565b91506134dd8261349c565b602082019050919050565b60006020820190508181036000830152613501816134c5565b9050919050565b7f4e487b7100000000000000000000000000000000000000000000000000000000600052601160045260246000fd5b600061354282612a6a565b915061354d83612a6a565b9250828210156135605761355f613508565b5b828203905092915050565b600061357682612a6a565b915061358183612a6a565b9250827fffffffffffffffffffffffffffffffffffffffffffffffffffffffffffffffff038211156135b6576135b5613508565b5b828201905092915050565b7f4e487b7100000000000000000000000000000000000000000000000000000000600052603260045260246000fd5b60006135fb82612a6a565b91507fffffffffffffffffffffffffffffffffffffffffffffffffffffffffffffffff820361362d5761362c613508565b5b600182019050919050565b7f4e465420616c7265616479206d696e7465640000000000000000000000000000600082015250565b600061366e6012836129a6565b915061367982613638565b602082019050919050565b6000602082019050818103600083015261369d81613661565b9050919050565b600082825260208201905092915050565b50565b60006136c56000836136a4565b91506136d0826136b5565b600082019050919050565b60006080820190506136f06000830186612aff565b6136fd6020830185612aff565b61370a6040830184612d35565b818103606083015261371b816136b8565b9050949350505050565b60007fffffffff0000000000000000000000000000000000000000000000000000000082169050919050565b61375a81613725565b811461376557600080fd5b50565b60008151905061377781613751565b92915050565b60006020828403121561379357613792612a60565b5b60006137a184828501613768565b91505092915050565b7f556e7361666520726563697069656e7400000000000000000000000000000000600082015250565b60006137e06010836129a6565b91506137eb826137aa565b602082019050919050565b6000602082019050818103600083015261380f816137d3565b9050919050565b7f546f6b656e20646f6573206e6f74206578697374000000000000000000000000600082015250565b600061384c6014836129a6565b915061385782613816565b602082019050919050565b6000602082019050818103600083015261387b8161383f565b9050919050565b7f596f752063616e6e6f742062757920796f7572206f776e2070726f7065727479600082015250565b60006138b86020836129a6565b91506138c382613882565b602082019050919050565b600060208201905081810360008301526138e7816138ab565b9050919050565b7f496e73756666696369656e74204554482070726f766964656400000000000000600082015250565b60006139246019836129a6565b915061392f826138ee565b602082019050919050565b6000602082019050818103600083015261395381613917565b9050919050565b7f546f6b656e206973206e6f7420757020666f722073616c650000000000000000600082015250565b60006139906018836129a6565b915061399b8261395a565b602082019050919050565b600060208201905081810360008301526139bf81613983565b9050919050565b600060a0820190506139db6000830188612d35565b6139e86020830187612d35565b6139f5604083018661307a565b613a02606083018561307a565b613a0f6080830184612d35565b9695505050505050565b7f4c6f636174696f6e206d757374206e6f7420626520656d707479000000000000600082015250565b6000613a4f601a836129a6565b9150613a5a82613a19565b602082019050919050565b60006020820190508181036000830152613a7e81613a42565b9050919050565b7f4465736372697074696f6e206d757374206e6f7420626520656d707479000000600082015250565b6000613abb601d836129a6565b9150613ac682613a85565b602082019050919050565b60006020820190508181036000830152613aea81613aae565b9050919050565b7f5072696365206d757374206e6f7420626520656d707479000000000000000000600082015250565b6000613b276017836129a6565b9150613b3282613af1565b602082019050919050565b60006020820190508181036000830152613b5681613b1a565b9050919050565b7f496d616765206d757374206e6f7420626520656d707479000000000000000000600082015250565b6000613b936017836129a6565b9150613b9e82613b5d565b602082019050919050565b60006020820190508181036000830152613bc281613b86565b9050919050565b6000819050919050565b6000613bee613be9613be484612acd565b613bc9565b612acd565b9050919050565b6000613c0082613bd3565b9050919050565b6000613c1282613bf5565b9050919050565b613c2281613c07565b82525050565b600060e082019050613c3d600083018a612d35565b8181036020830152613c4f81896129fb565b90508181036040830152613c6381886129fb565b9050613c726060830187612d35565b613c7f6080830186613c19565b613c8c60a0830185612f5b565b81810360c0830152613c9e81846129fb565b905098975050505050505050565b7f496e76616c6964206f70657261746f7220616464726573730000000000000000600082015250565b6000613ce26018836129a6565b9150613ced82613cac565b602082019050919050565b60006020820190508181036000830152613d1181613cd5565b9050919050565b7f4f70657261746f722063616e6e6f7420626520746865206f776e657200000000600082015250565b6000613d4e601c836129a6565b9150613d5982613d18565b602082019050919050565b60006020820190508181036000830152613d7d81613d41565b9050919050565b7f496e76616c6964206f776e657220616464726573730000000000000000000000600082015250565b6000613dba6015836129a6565b9150613dc582613d84565b602082019050919050565b60006020820190508181036000830152613de981613dad565b905091905056fea26469706673582212208d4e149b31546f0a317f39554c18ef68b276ff52af50f597ca54baf498ee40b464736f6c634300080d0033",
  "immutableReferences": {},
  "source": "// SPDX-License-Identifier: MIT\npragma solidity ^0.8.13;\n\nimport './ERC721.sol';\nimport './IERC721Receiver.sol';\n\n\ncontract EstateLuxe is ERC721{\n\n  string private _name;\n  string private _symbol;\n\n  uint256 tokenIndex;\n\n  struct Realty {\n    uint256 tokenId;\n    string location;\n    string description;\n    uint256 price;\n    address payable owner;\n    bool isForSale;\n    string image;\n  }\n\n  struct RealtyTxn{\n    uint256 tokenId;\n    uint256 price;\n    address payable seller;\n    address payable buyer;\n    uint256 date;\n  }\n\n  event RealtyListed(\n    uint256 tokenId,\n    string location,\n    string description,\n    uint256 price,\n    address owner,\n    bool isForSale,\n    string image\n  );\n\n  event RealtyBought(\n    uint256 tokenId,\n    uint256 price,\n    address payable seller,\n    address payable buyer,\n    uint256 date\n  );\n\n  event RealtyResell(\n    uint256 tokenId,\n    uint256 price,\n    bool isForSale\n  );\n\n\n  Realty[] public realties;\n\n    // mapping that return the address of the owner of a specific NFT\n  mapping (uint256 => address) private _tokenOwner;\n\n  // mapping that returns the number of NFTs owned by an address\n  mapping (address => uint256) private _ownedTokensCount;\n\n  mapping(address => mapping(address => bool)) private _isApprovedForAll;\n\n  mapping(address => mapping(address => mapping(uint256 => bool))) private _isApprovedForSingle;\n\n  mapping(uint256 => address) private _tokenApproval;\n\n  mapping(uint256 => Realty) realtyProperty;\n\n  // returns a list of realty transactions that has occurred, by its token id \n  mapping(uint256 => RealtyTxn[]) realtyTxns;\n\n\n  constructor(string memory name_, string memory symbol_){\n    _name = name_;\n    _symbol = symbol_;\n  }\n\n  // the receive function receives Ether from and EOA to the current contract balance\n  receive() external payable{}\n\n\n  function createListing(\n    string memory _location, \n    string memory _description, \n    uint256 _price,\n    string memory _image\n    ) public {\n\n      require(bytes(_location).length > 0, \"Location must not be empty\");\n      require(bytes(_description).length > 0, \"Description must not be empty\");\n      require(_price > 0, \"Price must not be empty\");\n      require(bytes(_image).length > 0, \"Image must not be empty\");\n\n      Realty memory realty = Realty({\n        tokenId: tokenIndex,\n        location: _location,\n        description: _description,        \n        price: _price,\n        owner: payable(msg.sender),\n        isForSale: true,\n        image: _image\n      });\n      realtyProperty[tokenIndex]=realty;\n      realties.push(realty);\n      mint(msg.sender, realty.tokenId);\n\n      tokenIndex ++;\n      \n      emit RealtyListed(realty.tokenId, realty.location, realty.description, realty.price, realty.owner, realty.isForSale, realty.image);\n  }\n\n\n  function buyRealty(uint256 tokenId)payable public{\n    require(_tokenOwner[tokenId] != address(0), \"Token does not exist\");\n    (uint256 _price, address _owner, bool _isForSale)  = findListing(tokenId);\n    require(msg.sender != _owner, \"You cannot buy your own property\");\n    require(msg.value >= _price, \"Insufficient ETH provided\");\n    require(_isForSale, \"Token is not up for sale\");\n\n    if(msg.value > _price){\n      payable(msg.sender).transfer(msg.value - _price);\n    }\n    payable(_tokenOwner[tokenId]).transfer(msg.value);\n\n    transferFrom(_tokenOwner[tokenId], msg.sender, tokenId);\n    realtyProperty[tokenId].owner = payable(msg.sender);\n    realtyProperty[tokenId].isForSale = false;\n    \n    RealtyTxn memory realtyTxn = RealtyTxn({\n      tokenId: tokenId,\n      price: _price,\n      seller:payable( _tokenOwner[tokenId]),\n      buyer: payable(msg.sender),\n      date: block.timestamp\n    });\n\n    // to keep track of transactions\n    realtyTxns[tokenId].push(realtyTxn);\n\n    emit RealtyBought(\n      realtyTxn.tokenId,\n      realtyTxn.price,\n      realtyTxn.seller,\n      realtyTxn.buyer,\n      realtyTxn.date\n    );\n\n  }\n\n\n  function resellRealty(uint256 _tokenId, uint256 _price)payable public{\n    require(_tokenOwner[_tokenId] != address(0), \"NFT does not exist\");\n    require(_tokenOwner[_tokenId] == msg.sender, \"Invalid token owner\");\n    require(_price > 0, \"Input realty price\");\n\n    Realty memory realty = realtyProperty[_tokenId];\n    realty.price = _price;\n    realty.isForSale = true;\n\n    emit RealtyResell(realty.tokenId,realty.price, realty.isForSale);\n  }\n\n  function getMyRealties()public view returns(uint256[] memory){\n    uint256 numberOfTokens = _ownedTokensCount[msg.sender];\n    if(numberOfTokens == 0){\n      return new uint256[](0);\n    }\n    else{\n      uint256[] memory myRealties = new uint256[](numberOfTokens);\n      uint256 myRealtyIndex = 0;\n      for (uint256 i = 0; i < realties.length; i++){\n        if( realties[i].owner == payable(msg.sender)){\n          myRealties[myRealtyIndex] = realties[i].tokenId;\n          myRealtyIndex++;\n        }\n      }\n      return myRealties;\n    }\n  }\n\n\n  function getRealtyTxns(uint256 _tokenId)public view returns(RealtyTxn[] memory){\n    require(_tokenOwner[_tokenId] != address(0), \"NFT does not exist\");\n    return realtyTxns[_tokenId];\n  }\n\n\n  function findListing(uint256 _tokenId)view public returns(\n    uint256 _price, \n    address _owner, \n    bool _isForSale\n    ){\n    Realty memory realty = realtyProperty[_tokenId];\n    _price = realty.price; \n    _owner = realty.owner; \n    _isForSale = realty.isForSale; \n    return(\n      _price, \n      _owner, \n      _isForSale\n    );\n  }\n\n\n  function name() external view returns (string memory) {\n    return _name;\n  }\n\n\n  function symbol() external view returns (string memory) {\n    return _symbol;\n  }\n  \n\n  // mint new NFT\n  function mint(address _owner, uint256 _tokenId) public {\n    // token id should belong to the zero address, meaning that initially, NFT does not exist\n    require(_tokenOwner[_tokenId] == address(0), \"NFT already minted\");\n\n    _tokenOwner[_tokenId] = _owner;\n    _ownedTokensCount[_owner] += 1;\n    emit Transfer(address(0), _owner, _tokenId);\n  }\n  \n\n  // check the number of NFTs owned by an address\n  function balanceOf(address _owner) external view returns (uint256 balance){\n    return _ownedTokensCount[_owner];\n  }\n\n\n  // check the owner of a specific NFT\n  function ownerOf(uint256 _tokenId) external view returns (address owner){\n    return _tokenOwner[_tokenId];\n  }\n\n\n  // approve another address(operator) to manage the NFT \n  function approve(address _to, uint256 _tokenId) external{\n    require(_tokenOwner[_tokenId] == msg.sender, \"Invalid token owner\");\n\n    _tokenApproval[_tokenId] = _to;\n    _isApprovedForSingle[msg.sender][_to][_tokenId] = true;\n    emit Approval(msg.sender, _to, _tokenId);\n  }\n\n\n  // get the approved address for a specific NFT\n  function getApproved(uint256 _tokenId) external view returns (address operator){\n    require(_tokenOwner[_tokenId] != address(0), \"NFT does not exist\");\n    return( _tokenApproval[_tokenId]  );\n  }\n\n\n  // approve of revoke the approval of an operator to handle all NFTs of the owner\n  function setApprovalForAll(address _operator, bool _approved) external{\n    require(_operator != address(0) , \"Invalid operator address\");\n    require(_operator != msg.sender, \"Operator cannot be the owner\");\n    _isApprovedForAll[msg.sender][_operator] = _approved;\n    \n    emit ApprovalForAll(msg.sender, _operator, _approved);\n  }\n\n\n  // check if an operator is approved to manage all NFTs of the owner\n  function isApprovedForAll(address _owner, address _operator) external view returns (bool){\n    require(_owner != address(0), \"Invalid owner address\");\n    require(_operator != address(0), \"Invalid operator address\");\n    return _isApprovedForAll[_owner][_operator];\n  }\n\n\n  // transfer an NFT from one address to another\n  function transferFrom(address _from, address _to, uint256 _tokenId) public{\n    require(_tokenOwner[_tokenId] != address(0), \"NFT does not exist\");\n    require(_to != address(0), \"Invalid recipient\");\n    require(msg.sender == _tokenOwner[_tokenId] || _isApprovedForSingle[_from][msg.sender][_tokenId] || _isApprovedForAll[_from][msg.sender], \"Unauthorized transfer operation\");\n\n    _tokenOwner[_tokenId] = _to;\n    _ownedTokensCount[_from] -= 1;\n    _ownedTokensCount[_to] += 1;\n\n    emit  Transfer(_from, _to, _tokenId);\n  }\n\n\n  // transfer an NFT from one address to another with safety check. designed to revert the transfer of NFTs to contracts that do not support the ERC721 interface\n  function safeTransferFrom(address _from, address _to, uint256 _tokenId) external{\n    transferFrom(_from, _to, _tokenId);\n    // a smart contract address has length of bytecode greater than zero\n    // so this checks if the _to address is an EOA, or of the recipient contract is able to handle NFTs with ERC721 interface\n    // if none of these is true, the NFT transfer is reverted.\n    require(\n      _to.code.length==0 || \n      IERC721Receiver(_to).onERC721Received(msg.sender, _from, _tokenId, \"\") == IERC721Receiver.onERC721Received.selector, \"Unsafe recipient\" \n    );\n  }\n\n}",
  "sourcePath": "/home/princeigwe/estate-luxe/contracts/elxERC721.sol",
  "compiler": {
    "name": "solc",
    "version": "0.8.13+commit.abaa5c0e.Emscripten.clang"
  },
  "schemaVersion": "3.4.16",
  "updatedAt": "2025-05-07T17:57:27.961Z",
  "networkType": "ethereum",
  "devdoc": {
    "kind": "dev",
    "methods": {},
    "version": 1
  },
  "userdoc": {
    "kind": "user",
    "methods": {},
    "version": 1
  }
}